{
  "_format": "hh-sol-artifact-1",
  "contractName": "AccessControlContract",
  "sourceName": "contracts/AccessControlContract.sol",
  "abi": [
    {
      "anonymous": false,
      "inputs": [
        {
          "indexed": true,
          "internalType": "address",
          "name": "owner",
          "type": "address"
        },
        {
          "indexed": false,
          "internalType": "address[]",
          "name": "permittedNodes",
          "type": "address[]"
        },
        {
          "indexed": false,
          "internalType": "bytes32",
          "name": "symmetricKey",
          "type": "bytes32"
        },
        {
          "indexed": false,
          "internalType": "string",
          "name": "pstatus",
          "type": "string"
        },
        {
          "indexed": false,
          "internalType": "uint256",
          "name": "lastUpdateDate",
          "type": "uint256"
        }
      ],
      "name": "AccessControlUpdated",
      "type": "event"
    },
    {
      "inputs": [
        {
          "internalType": "address",
          "name": "",
          "type": "address"
        }
      ],
      "name": "accessControls",
      "outputs": [
        {
          "internalType": "bytes32",
          "name": "symmetricKey",
          "type": "bytes32"
        },
        {
          "internalType": "string",
          "name": "pstatus",
          "type": "string"
        },
        {
          "internalType": "uint256",
          "name": "lastUpdateDate",
          "type": "uint256"
        }
      ],
      "stateMutability": "view",
      "type": "function"
    },
    {
      "inputs": [
        {
          "internalType": "address",
          "name": "owner",
          "type": "address"
        },
        {
          "internalType": "address",
          "name": "node",
          "type": "address"
        }
      ],
      "name": "getAccessLevel",
      "outputs": [
        {
          "internalType": "enum AccessControlContract.AccessLevel",
          "name": "",
          "type": "uint8"
        }
      ],
      "stateMutability": "view",
      "type": "function"
    },
    {
      "inputs": [
        {
          "internalType": "address",
          "name": "_patient",
          "type": "address"
        },
        {
          "internalType": "address",
          "name": "_doctor",
          "type": "address"
        }
      ],
      "name": "grantAccess",
      "outputs": [],
      "stateMutability": "nonpayable",
      "type": "function"
    },
    {
      "inputs": [
        {
          "internalType": "address[]",
          "name": "_permittedNodes",
          "type": "address[]"
        },
        {
          "internalType": "enum AccessControlContract.AccessLevel[]",
          "name": "_accessLevels",
          "type": "uint8[]"
        },
        {
          "internalType": "bytes32",
          "name": "_symmetricKey",
          "type": "bytes32"
        },
        {
          "internalType": "string",
          "name": "_pstatus",
          "type": "string"
        }
      ],
      "name": "updateAccessControl",
      "outputs": [],
      "stateMutability": "nonpayable",
      "type": "function"
    }
  ],
  "bytecode": "0x608060405234801561001057600080fd5b50611568806100206000396000f3fe608060405234801561001057600080fd5b506004361061004c5760003560e01c8063c6a09d9514610051578063e2f4491c1461006d578063e762cbea1461009d578063ef18efbc146100cf575b600080fd5b61006b600480360381019061006691906108ae565b6100eb565b005b610087600480360381019061008291906108ae565b610478565b6040516100949190610965565b60405180910390f35b6100b760048036038101906100b29190610980565b61050e565b6040516100c693929190610a6f565b60405180910390f35b6100e960048036038101906100e49190610dbe565b6105c0565b005b600073ffffffffffffffffffffffffffffffffffffffff168273ffffffffffffffffffffffffffffffffffffffff16141580156101555750600073ffffffffffffffffffffffffffffffffffffffff168173ffffffffffffffffffffffffffffffffffffffff1614155b610194576040517f08c379a000000000000000000000000000000000000000000000000000000000815260040161018b90610ec5565b60405180910390fd5b60008060008473ffffffffffffffffffffffffffffffffffffffff1673ffffffffffffffffffffffffffffffffffffffff168152602001908152602001600020905060008060008473ffffffffffffffffffffffffffffffffffffffff1673ffffffffffffffffffffffffffffffffffffffff168152602001908152602001600020905081600001849080600181540180825580915050600190039060005260206000200160009091909190916101000a81548173ffffffffffffffffffffffffffffffffffffffff021916908373ffffffffffffffffffffffffffffffffffffffff16021790555060008260010160008673ffffffffffffffffffffffffffffffffffffffff1673ffffffffffffffffffffffffffffffffffffffff16815260200190815260200160002060006101000a81548160ff021916908360028111156102e2576102e16108ee565b5b021790555080600001839080600181540180825580915050600190039060005260206000200160009091909190916101000a81548173ffffffffffffffffffffffffffffffffffffffff021916908373ffffffffffffffffffffffffffffffffffffffff16021790555060018160010160008573ffffffffffffffffffffffffffffffffffffffff1673ffffffffffffffffffffffffffffffffffffffff16815260200190815260200160002060006101000a81548160ff021916908360028111156103b1576103b06108ee565b5b02179055508373ffffffffffffffffffffffffffffffffffffffff167fe63fedb73f770a1b0b70119c05f7b754136be9d8abf801a3a504b0b4a433c09b836000018460020154856003014260405161040c9493929190611102565b60405180910390a28273ffffffffffffffffffffffffffffffffffffffff167fe63fedb73f770a1b0b70119c05f7b754136be9d8abf801a3a504b0b4a433c09b826000018360020154846003014260405161046a9493929190611102565b60405180910390a250505050565b60008060008473ffffffffffffffffffffffffffffffffffffffff1673ffffffffffffffffffffffffffffffffffffffff16815260200190815260200160002060010160008373ffffffffffffffffffffffffffffffffffffffff1673ffffffffffffffffffffffffffffffffffffffff16815260200190815260200160002060009054906101000a900460ff16905092915050565b600060205280600052604060002060009150905080600201549080600301805461053790611038565b80601f016020809104026020016040519081016040528092919081815260200182805461056390611038565b80156105b05780601f10610585576101008083540402835291602001916105b0565b820191906000526020600020905b81548152906001019060200180831161059357829003601f168201915b5050505050908060040154905083565b60008060003373ffffffffffffffffffffffffffffffffffffffff1673ffffffffffffffffffffffffffffffffffffffff16815260200190815260200160002090508351855114610646576040517f08c379a000000000000000000000000000000000000000000000000000000000815260040161063d906111a1565b60405180910390fd5b8481600001908051906020019061065e929190610795565b50828160020181905550818160030190816106799190611358565b5042816004018190555060005b8551811015610739578481815181106106a2576106a161142a565b5b60200260200101518260010160008884815181106106c3576106c261142a565b5b602002602001015173ffffffffffffffffffffffffffffffffffffffff1673ffffffffffffffffffffffffffffffffffffffff16815260200190815260200160002060006101000a81548160ff02191690836002811115610727576107266108ee565b5b02179055508080600101915050610686565b503373ffffffffffffffffffffffffffffffffffffffff167fe63fedb73f770a1b0b70119c05f7b754136be9d8abf801a3a504b0b4a433c09b8685854260405161078694939291906114df565b60405180910390a25050505050565b82805482825590600052602060002090810192821561080e579160200282015b8281111561080d5782518260006101000a81548173ffffffffffffffffffffffffffffffffffffffff021916908373ffffffffffffffffffffffffffffffffffffffff160217905550916020019190600101906107b5565b5b50905061081b919061081f565b5090565b5b80821115610838576000816000905550600101610820565b5090565b6000604051905090565b600080fd5b600080fd5b600073ffffffffffffffffffffffffffffffffffffffff82169050919050565b600061087b82610850565b9050919050565b61088b81610870565b811461089657600080fd5b50565b6000813590506108a881610882565b92915050565b600080604083850312156108c5576108c4610846565b5b60006108d385828601610899565b92505060206108e485828601610899565b9150509250929050565b7f4e487b7100000000000000000000000000000000000000000000000000000000600052602160045260246000fd5b6003811061092e5761092d6108ee565b5b50565b600081905061093f8261091d565b919050565b600061094f82610931565b9050919050565b61095f81610944565b82525050565b600060208201905061097a6000830184610956565b92915050565b60006020828403121561099657610995610846565b5b60006109a484828501610899565b91505092915050565b6000819050919050565b6109c0816109ad565b82525050565b600081519050919050565b600082825260208201905092915050565b60005b83811015610a005780820151818401526020810190506109e5565b60008484015250505050565b6000601f19601f8301169050919050565b6000610a28826109c6565b610a3281856109d1565b9350610a428185602086016109e2565b610a4b81610a0c565b840191505092915050565b6000819050919050565b610a6981610a56565b82525050565b6000606082019050610a8460008301866109b7565b8181036020830152610a968185610a1d565b9050610aa56040830184610a60565b949350505050565b600080fd5b7f4e487b7100000000000000000000000000000000000000000000000000000000600052604160045260246000fd5b610aea82610a0c565b810181811067ffffffffffffffff82111715610b0957610b08610ab2565b5b80604052505050565b6000610b1c61083c565b9050610b288282610ae1565b919050565b600067ffffffffffffffff821115610b4857610b47610ab2565b5b602082029050602081019050919050565b600080fd5b6000610b71610b6c84610b2d565b610b12565b90508083825260208201905060208402830185811115610b9457610b93610b59565b5b835b81811015610bbd5780610ba98882610899565b845260208401935050602081019050610b96565b5050509392505050565b600082601f830112610bdc57610bdb610aad565b5b8135610bec848260208601610b5e565b91505092915050565b600067ffffffffffffffff821115610c1057610c0f610ab2565b5b602082029050602081019050919050565b60038110610c2e57600080fd5b50565b600081359050610c4081610c21565b92915050565b6000610c59610c5484610bf5565b610b12565b90508083825260208201905060208402830185811115610c7c57610c7b610b59565b5b835b81811015610ca55780610c918882610c31565b845260208401935050602081019050610c7e565b5050509392505050565b600082601f830112610cc457610cc3610aad565b5b8135610cd4848260208601610c46565b91505092915050565b610ce6816109ad565b8114610cf157600080fd5b50565b600081359050610d0381610cdd565b92915050565b600080fd5b600067ffffffffffffffff821115610d2957610d28610ab2565b5b610d3282610a0c565b9050602081019050919050565b82818337600083830152505050565b6000610d61610d5c84610d0e565b610b12565b905082815260208101848484011115610d7d57610d7c610d09565b5b610d88848285610d3f565b509392505050565b600082601f830112610da557610da4610aad565b5b8135610db5848260208601610d4e565b91505092915050565b60008060008060808587031215610dd857610dd7610846565b5b600085013567ffffffffffffffff811115610df657610df561084b565b5b610e0287828801610bc7565b945050602085013567ffffffffffffffff811115610e2357610e2261084b565b5b610e2f87828801610caf565b9350506040610e4087828801610cf4565b925050606085013567ffffffffffffffff811115610e6157610e6061084b565b5b610e6d87828801610d90565b91505092959194509250565b7f496e76616c696420616464726573736573000000000000000000000000000000600082015250565b6000610eaf6011836109d1565b9150610eba82610e79565b602082019050919050565b60006020820190508181036000830152610ede81610ea2565b9050919050565b600081549050919050565b600082825260208201905092915050565b60008190508160005260206000209050919050565b610f1f81610870565b82525050565b6000610f318383610f16565b60208301905092915050565b60008160001c9050919050565b600073ffffffffffffffffffffffffffffffffffffffff82169050919050565b6000610f7d610f7883610f3d565b610f4a565b9050919050565b6000610f908254610f6a565b9050919050565b6000600182019050919050565b6000610faf82610ee5565b610fb98185610ef0565b9350610fc483610f01565b8060005b83811015610ffc57610fd982610f84565b610fe38882610f25565b9750610fee83610f97565b925050600181019050610fc8565b5085935050505092915050565b7f4e487b7100000000000000000000000000000000000000000000000000000000600052602260045260246000fd5b6000600282049050600182168061105057607f821691505b60208210810361106357611062611009565b5b50919050565b60008190508160005260206000209050919050565b6000815461108b81611038565b61109581866109d1565b945060018216600081146110b057600181146110c6576110f9565b60ff1983168652811515602002860193506110f9565b6110cf85611069565b60005b838110156110f1578154818901526001820191506020810190506110d2565b808801955050505b50505092915050565b6000608082019050818103600083015261111c8187610fa4565b905061112b60208301866109b7565b818103604083015261113d818561107e565b905061114c6060830184610a60565b95945050505050565b7f496e76616c696420696e70757400000000000000000000000000000000000000600082015250565b600061118b600d836109d1565b915061119682611155565b602082019050919050565b600060208201905081810360008301526111ba8161117e565b9050919050565b60006020601f8301049050919050565b600082821b905092915050565b60006008830261120e7fffffffffffffffffffffffffffffffffffffffffffffffffffffffffffffffff826111d1565b61121886836111d1565b95508019841693508086168417925050509392505050565b6000819050919050565b600061125561125061124b84610a56565b611230565b610a56565b9050919050565b6000819050919050565b61126f8361123a565b61128361127b8261125c565b8484546111de565b825550505050565b600090565b61129861128b565b6112a3818484611266565b505050565b5b818110156112c7576112bc600082611290565b6001810190506112a9565b5050565b601f82111561130c576112dd81611069565b6112e6846111c1565b810160208510156112f5578190505b611309611301856111c1565b8301826112a8565b50505b505050565b600082821c905092915050565b600061132f60001984600802611311565b1980831691505092915050565b6000611348838361131e565b9150826002028217905092915050565b611361826109c6565b67ffffffffffffffff81111561137a57611379610ab2565b5b6113848254611038565b61138f8282856112cb565b600060209050601f8311600181146113c257600084156113b0578287015190505b6113ba858261133c565b865550611422565b601f1984166113d086611069565b60005b828110156113f8578489015182556001820191506020850194506020810190506113d3565b868310156114155784890151611411601f89168261131e565b8355505b6001600288020188555050505b505050505050565b7f4e487b7100000000000000000000000000000000000000000000000000000000600052603260045260246000fd5b600081519050919050565b6000819050602082019050919050565b6000602082019050919050565b600061148c82611459565b6114968185610ef0565b93506114a183611464565b8060005b838110156114d25781516114b98882610f25565b97506114c483611474565b9250506001810190506114a5565b5085935050505092915050565b600060808201905081810360008301526114f98187611481565b905061150860208301866109b7565b818103604083015261151a8185610a1d565b90506115296060830184610a60565b9594505050505056fea2646970667358221220f32444c240cc1aa1dd7759a64e4556d30fa5600a2f10ec87679ffe5870fe196064736f6c63430008180033",
  "linkReferences": {},
  "deployedLinkReferences": {}
}