{
  "_format": "hh-sol-artifact-1",
  "contractName": "base",
  "sourceName": "contracts/base.sol",
  "abi": [
    {
      "inputs": [
        {
          "internalType": "address",
          "name": "_srhcaddress",
          "type": "address"
        },
        {
          "internalType": "address",
          "name": "_prcaddress",
          "type": "address"
        },
        {
          "internalType": "address",
          "name": "_lcaddress",
          "type": "address"
        }
      ],
      "stateMutability": "nonpayable",
      "type": "constructor"
    },
    {
      "anonymous": false,
      "inputs": [
        {
          "indexed": false,
          "internalType": "address",
          "name": "doctor",
          "type": "address"
        },
        {
          "indexed": false,
          "internalType": "address[]",
          "name": "patientList",
          "type": "address[]"
        }
      ],
      "name": "DoctorPatientListUpdated",
      "type": "event"
    },
    {
      "anonymous": false,
      "inputs": [
        {
          "indexed": false,
          "internalType": "address",
          "name": "doctorAddress",
          "type": "address"
        },
        {
          "indexed": false,
          "internalType": "uint16",
          "name": "rating",
          "type": "uint16"
        },
        {
          "indexed": false,
          "internalType": "uint256",
          "name": "updatedScore",
          "type": "uint256"
        }
      ],
      "name": "DoctorRated",
      "type": "event"
    },
    {
      "anonymous": false,
      "inputs": [
        {
          "indexed": false,
          "internalType": "address",
          "name": "_doctor",
          "type": "address"
        },
        {
          "indexed": false,
          "internalType": "string",
          "name": "message",
          "type": "string"
        }
      ],
      "name": "doctorSignUp",
      "type": "event"
    },
    {
      "anonymous": false,
      "inputs": [
        {
          "indexed": false,
          "internalType": "address",
          "name": "patient_address",
          "type": "address"
        },
        {
          "indexed": false,
          "internalType": "string",
          "name": "message",
          "type": "string"
        },
        {
          "indexed": false,
          "internalType": "string",
          "name": "_doctor",
          "type": "string"
        },
        {
          "indexed": false,
          "internalType": "address",
          "name": "doctor_address",
          "type": "address"
        }
      ],
      "name": "grantDoctorAccess",
      "type": "event"
    },
    {
      "anonymous": false,
      "inputs": [
        {
          "indexed": false,
          "internalType": "address",
          "name": "_patient",
          "type": "address"
        },
        {
          "indexed": false,
          "internalType": "string",
          "name": "message",
          "type": "string"
        }
      ],
      "name": "patientSignUp",
      "type": "event"
    },
    {
      "inputs": [
        {
          "internalType": "address",
          "name": "a",
          "type": "address"
        },
        {
          "internalType": "string",
          "name": "_file_name",
          "type": "string"
        },
        {
          "internalType": "string",
          "name": "_file_type",
          "type": "string"
        },
        {
          "internalType": "string",
          "name": "_file_hash",
          "type": "string"
        }
      ],
      "name": "addUserFiles",
      "outputs": [],
      "stateMutability": "nonpayable",
      "type": "function"
    },
    {
      "inputs": [
        {
          "internalType": "uint256",
          "name": "",
          "type": "uint256"
        }
      ],
      "name": "allDoctors",
      "outputs": [
        {
          "internalType": "address",
          "name": "",
          "type": "address"
        }
      ],
      "stateMutability": "view",
      "type": "function"
    },
    {
      "inputs": [
        {
          "internalType": "address",
          "name": "_doctorId",
          "type": "address"
        }
      ],
      "name": "doctorSignIn",
      "outputs": [],
      "stateMutability": "view",
      "type": "function"
    },
    {
      "inputs": [
        {
          "internalType": "address",
          "name": "",
          "type": "address"
        }
      ],
      "name": "doctors",
      "outputs": [
        {
          "internalType": "string",
          "name": "name",
          "type": "string"
        },
        {
          "internalType": "address",
          "name": "id",
          "type": "address"
        },
        {
          "internalType": "string",
          "name": "contact",
          "type": "string"
        },
        {
          "internalType": "string",
          "name": "specialization",
          "type": "string"
        },
        {
          "internalType": "uint16",
          "name": "yearsOfExperience",
          "type": "uint16"
        },
        {
          "internalType": "uint256",
          "name": "authorityScore",
          "type": "uint256"
        }
      ],
      "stateMutability": "view",
      "type": "function"
    },
    {
      "inputs": [],
      "name": "doctorsCount",
      "outputs": [
        {
          "internalType": "uint256",
          "name": "",
          "type": "uint256"
        }
      ],
      "stateMutability": "view",
      "type": "function"
    },
    {
      "inputs": [
        {
          "internalType": "address",
          "name": "doctorAddress",
          "type": "address"
        }
      ],
      "name": "getDoctorScore",
      "outputs": [
        {
          "internalType": "uint256",
          "name": "",
          "type": "uint256"
        }
      ],
      "stateMutability": "view",
      "type": "function"
    },
    {
      "inputs": [],
      "name": "getDoctorSpecializations",
      "outputs": [
        {
          "internalType": "address[]",
          "name": "",
          "type": "address[]"
        },
        {
          "internalType": "string[]",
          "name": "",
          "type": "string[]"
        }
      ],
      "stateMutability": "view",
      "type": "function"
    },
    {
      "inputs": [
        {
          "internalType": "address",
          "name": "patientId",
          "type": "address"
        }
      ],
      "name": "getDoctorSpecializationsOfPatient",
      "outputs": [
        {
          "internalType": "address[]",
          "name": "",
          "type": "address[]"
        },
        {
          "internalType": "string[]",
          "name": "",
          "type": "string[]"
        }
      ],
      "stateMutability": "view",
      "type": "function"
    },
    {
      "inputs": [
        {
          "internalType": "address",
          "name": "doctorId",
          "type": "address"
        },
        {
          "internalType": "address",
          "name": "patientId",
          "type": "address"
        }
      ],
      "name": "grantAccessPatientToDoctor",
      "outputs": [],
      "stateMutability": "nonpayable",
      "type": "function"
    },
    {
      "inputs": [
        {
          "internalType": "address",
          "name": "",
          "type": "address"
        },
        {
          "internalType": "address",
          "name": "",
          "type": "address"
        }
      ],
      "name": "hasRated",
      "outputs": [
        {
          "internalType": "bool",
          "name": "",
          "type": "bool"
        }
      ],
      "stateMutability": "view",
      "type": "function"
    },
    {
      "inputs": [],
      "name": "lc",
      "outputs": [
        {
          "internalType": "contract LogsContract",
          "name": "",
          "type": "address"
        }
      ],
      "stateMutability": "view",
      "type": "function"
    },
    {
      "inputs": [
        {
          "internalType": "address",
          "name": "",
          "type": "address"
        },
        {
          "internalType": "uint256",
          "name": "",
          "type": "uint256"
        }
      ],
      "name": "patientFiles",
      "outputs": [
        {
          "internalType": "string",
          "name": "file_name",
          "type": "string"
        },
        {
          "internalType": "string",
          "name": "file_type",
          "type": "string"
        },
        {
          "internalType": "string",
          "name": "file_hash",
          "type": "string"
        }
      ],
      "stateMutability": "view",
      "type": "function"
    },
    {
      "inputs": [
        {
          "internalType": "address",
          "name": "_patientId",
          "type": "address"
        }
      ],
      "name": "patientSignIn",
      "outputs": [],
      "stateMutability": "view",
      "type": "function"
    },
    {
      "inputs": [
        {
          "internalType": "address",
          "name": "",
          "type": "address"
        },
        {
          "internalType": "address",
          "name": "",
          "type": "address"
        }
      ],
      "name": "patientToDoctor",
      "outputs": [
        {
          "internalType": "uint16",
          "name": "",
          "type": "uint16"
        }
      ],
      "stateMutability": "view",
      "type": "function"
    },
    {
      "inputs": [
        {
          "internalType": "address",
          "name": "",
          "type": "address"
        }
      ],
      "name": "patients",
      "outputs": [
        {
          "internalType": "string",
          "name": "name",
          "type": "string"
        },
        {
          "internalType": "uint256",
          "name": "age",
          "type": "uint256"
        },
        {
          "internalType": "address",
          "name": "id",
          "type": "address"
        },
        {
          "internalType": "string",
          "name": "gender",
          "type": "string"
        },
        {
          "internalType": "string",
          "name": "contact_info",
          "type": "string"
        }
      ],
      "stateMutability": "view",
      "type": "function"
    },
    {
      "inputs": [],
      "name": "prc",
      "outputs": [
        {
          "internalType": "contract PatientRecordsContract",
          "name": "",
          "type": "address"
        }
      ],
      "stateMutability": "view",
      "type": "function"
    },
    {
      "inputs": [
        {
          "internalType": "address",
          "name": "doctorId",
          "type": "address"
        },
        {
          "internalType": "uint16",
          "name": "rating",
          "type": "uint16"
        }
      ],
      "name": "rateDoctor",
      "outputs": [],
      "stateMutability": "nonpayable",
      "type": "function"
    },
    {
      "inputs": [
        {
          "internalType": "address",
          "name": "_id",
          "type": "address"
        },
        {
          "internalType": "string",
          "name": "_name",
          "type": "string"
        },
        {
          "internalType": "string",
          "name": "_contact",
          "type": "string"
        },
        {
          "internalType": "string",
          "name": "_specialization",
          "type": "string"
        },
        {
          "internalType": "uint16",
          "name": "_yrsofexp",
          "type": "uint16"
        }
      ],
      "name": "signupDoctor",
      "outputs": [],
      "stateMutability": "nonpayable",
      "type": "function"
    },
    {
      "inputs": [
        {
          "internalType": "string",
          "name": "_name",
          "type": "string"
        },
        {
          "internalType": "address",
          "name": "a",
          "type": "address"
        },
        {
          "internalType": "uint256",
          "name": "_age",
          "type": "uint256"
        },
        {
          "internalType": "string",
          "name": "_contact",
          "type": "string"
        },
        {
          "internalType": "string",
          "name": "_gender",
          "type": "string"
        }
      ],
      "name": "signupPatient",
      "outputs": [],
      "stateMutability": "nonpayable",
      "type": "function"
    },
    {
      "inputs": [],
      "name": "srhc",
      "outputs": [
        {
          "internalType": "contract StewardRelationshipHistoryContract",
          "name": "",
          "type": "address"
        }
      ],
      "stateMutability": "view",
      "type": "function"
    }
  ],
  "bytecode": "0x60806040523480156200001157600080fd5b5060405162005dc138038062005dc183398181016040528101906200003791906200020f565b600073ffffffffffffffffffffffffffffffffffffffff168373ffffffffffffffffffffffffffffffffffffffff1614620000ae5782600260006101000a81548173ffffffffffffffffffffffffffffffffffffffff021916908373ffffffffffffffffffffffffffffffffffffffff1602179055505b600073ffffffffffffffffffffffffffffffffffffffff168273ffffffffffffffffffffffffffffffffffffffff1614620001255781600360006101000a81548173ffffffffffffffffffffffffffffffffffffffff021916908373ffffffffffffffffffffffffffffffffffffffff1602179055505b600073ffffffffffffffffffffffffffffffffffffffff168173ffffffffffffffffffffffffffffffffffffffff16146200019c5780600460006101000a81548173ffffffffffffffffffffffffffffffffffffffff021916908373ffffffffffffffffffffffffffffffffffffffff1602179055505b5050506200026b565b600080fd5b600073ffffffffffffffffffffffffffffffffffffffff82169050919050565b6000620001d782620001aa565b9050919050565b620001e981620001ca565b8114620001f557600080fd5b50565b6000815190506200020981620001de565b92915050565b6000806000606084860312156200022b576200022a620001a5565b5b60006200023b86828701620001f8565b93505060206200024e86828701620001f8565b92505060406200026186828701620001f8565b9150509250925092565b615b46806200027b6000396000f3fe608060405234801561001057600080fd5b506004361061012c5760003560e01c80635fd44d3b116100ad5780639bdf364b116100715780639bdf364b1461035c578063a595436d1461038c578063a9583c22146103ab578063ad3cb72d146103e0578063be673d75146103fc5761012c565b80635fd44d3b146102b8578063725afedc146102e857806372a68aeb146103045780637514048b1461032257806394cd1c64146103405761012c565b806335e8bbac116100f457806335e8bbac146101eb578063473d8bf5146102095780634befd12d1461023b578063563398781461026c5780635a520da1146102885761012c565b806304bb9bc0146101315780630512feb31461014f5780630869cfbc1461016b5780632c365df61461019f57806330098860146101cf575b600080fd5b610139610418565b6040516101469190614293565b60405180910390f35b61016960048036038101906101649190614320565b61041e565b005b61018560048036038101906101809190614320565b6107f4565b6040516101969594939291906143ec565b60405180910390f35b6101b960048036038101906101b49190614454565b6109e2565b6040516101c691906144af565b60405180910390f35b6101e960048036038101906101e49190614639565b610a11565b005b6101f3610e14565b6040516102009190614767565b60405180910390f35b610223600480360381019061021e91906147ae565b610e3a565b604051610232939291906147ee565b60405180910390f35b61025560048036038101906102509190614320565b611019565b604051610263929190614a04565b60405180910390f35b61028660048036038101906102819190614320565b61126a565b005b6102a2600480360381019061029d9190614a3b565b611678565b6040516102af9190614a68565b60405180910390f35b6102d260048036038101906102cd9190614320565b6116b7565b6040516102df9190614293565b60405180910390f35b61030260048036038101906102fd9190614a83565b611703565b005b61030c611ddd565b6040516103199190614ae4565b60405180910390f35b61032a611e03565b6040516103379190614b20565b60405180910390f35b61035a60048036038101906103559190614b3b565b611e29565b005b61037660048036038101906103719190614454565b6120f8565b6040516103839190614c19565b60405180910390f35b610394612128565b6040516103a2929190614a04565b60405180910390f35b6103c560048036038101906103c09190614320565b612643565b6040516103d796959493929190614c34565b60405180910390f35b6103fa60048036038101906103f59190614caa565b612845565b005b61041660048036038101906104119190614454565b612a38565b005b60005481565b806000600560008373ffffffffffffffffffffffffffffffffffffffff1673ffffffffffffffffffffffffffffffffffffffff1681526020019081526020016000206040518061010001604052908160008201805461047c90614d94565b80601f01602080910402602001604051908101604052809291908181526020018280546104a890614d94565b80156104f55780601f106104ca576101008083540402835291602001916104f5565b820191906000526020600020905b8154815290600101906020018083116104d857829003601f168201915b505050505081526020016001820160009054906101000a900473ffffffffffffffffffffffffffffffffffffffff1673ffffffffffffffffffffffffffffffffffffffff1673ffffffffffffffffffffffffffffffffffffffff16815260200160028201805461056490614d94565b80601f016020809104026020016040519081016040528092919081815260200182805461059090614d94565b80156105dd5780601f106105b2576101008083540402835291602001916105dd565b820191906000526020600020905b8154815290600101906020018083116105c057829003601f168201915b505050505081526020016003820180546105f690614d94565b80601f016020809104026020016040519081016040528092919081815260200182805461062290614d94565b801561066f5780601f106106445761010080835404028352916020019161066f565b820191906000526020600020905b81548152906001019060200180831161065257829003601f168201915b50505050508152602001600482018054806020026020016040519081016040528092919081815260200182805480156106fd57602002820191906000526020600020905b8160009054906101000a900473ffffffffffffffffffffffffffffffffffffffff1673ffffffffffffffffffffffffffffffffffffffff16815260200190600101908083116106b3575b505050505081526020016005820180548060200260200160405190810160405280929190818152602001828054801561077d57602002820191906000526020600020906000905b82829054906101000a900461ffff1661ffff16815260200190600201906020826001010492830192600103820291508084116107445790505b505050505081526020016006820160009054906101000a900461ffff1661ffff1661ffff1681526020016007820154815250509050600073ffffffffffffffffffffffffffffffffffffffff16816020015173ffffffffffffffffffffffffffffffffffffffff16116107ef57600080fd5b505050565b600660205280600052604060002060009150905080600001805461081790614d94565b80601f016020809104026020016040519081016040528092919081815260200182805461084390614d94565b80156108905780601f1061086557610100808354040283529160200191610890565b820191906000526020600020905b81548152906001019060200180831161087357829003601f168201915b5050505050908060010154908060020160009054906101000a900473ffffffffffffffffffffffffffffffffffffffff16908060030180546108d190614d94565b80601f01602080910402602001604051908101604052809291908181526020018280546108fd90614d94565b801561094a5780601f1061091f5761010080835404028352916020019161094a565b820191906000526020600020905b81548152906001019060200180831161092d57829003601f168201915b50505050509080600401805461095f90614d94565b80601f016020809104026020016040519081016040528092919081815260200182805461098b90614d94565b80156109d85780601f106109ad576101008083540402835291602001916109d8565b820191906000526020600020905b8154815290600101906020018083116109bb57829003601f168201915b5050505050905085565b60096020528160005260406000206020528060005260406000206000915091509054906101000a900460ff1681565b6000600560008773ffffffffffffffffffffffffffffffffffffffff1673ffffffffffffffffffffffffffffffffffffffff16815260200190815260200160002090507fc5d2460186f7233c927e7db2dcc703c0e500b653ca82273b7bfad8045d85a47085604051602001610a869190614e01565b6040516020818303038152906040528051906020012003610aa657600080fd5b600073ffffffffffffffffffffffffffffffffffffffff168160010160009054906101000a900473ffffffffffffffffffffffffffffffffffffffff1673ffffffffffffffffffffffffffffffffffffffff161115610b3a576040517f08c379a0000000000000000000000000000000000000000000000000000000008152600401610b3190614e64565b60405180910390fd5b6040518061010001604052808681526020018773ffffffffffffffffffffffffffffffffffffffff168152602001858152602001848152602001600067ffffffffffffffff811115610b8f57610b8e6144d4565b5b604051908082528060200260200182016040528015610bbd5781602001602082028036833780820191505090505b508152602001600067ffffffffffffffff811115610bde57610bdd6144d4565b5b604051908082528060200260200182016040528015610c0c5781602001602082028036833780820191505090505b5081526020018361ffff168152602001610c268585613714565b815250600560008873ffffffffffffffffffffffffffffffffffffffff1673ffffffffffffffffffffffffffffffffffffffff1681526020019081526020016000206000820151816000019081610c7d9190615026565b5060208201518160010160006101000a81548173ffffffffffffffffffffffffffffffffffffffff021916908373ffffffffffffffffffffffffffffffffffffffff1602179055506040820151816002019081610cda9190615026565b506060820151816003019081610cf09190615026565b506080820151816004019080519060200190610d0d92919061406c565b5060a0820151816005019080519060200190610d2a9291906140f6565b5060c08201518160060160006101000a81548161ffff021916908361ffff16021790555060e08201518160070155905050600080815480929190610d6d90615127565b91905055506001869080600181540180825580915050600190039060005260206000200160009091909190916101000a81548173ffffffffffffffffffffffffffffffffffffffff021916908373ffffffffffffffffffffffffffffffffffffffff1602179055507fdd0aa1d3beead09f31cc046643e0d63829e7c7f43e532c2523d978bc9c3bfb3386604051610e0491906151bb565b60405180910390a1505050505050565b600260009054906101000a900473ffffffffffffffffffffffffffffffffffffffff1681565b60086020528160005260406000208181548110610e5657600080fd5b906000526020600020906003020160009150915050806000018054610e7a90614d94565b80601f0160208091040260200160405190810160405280929190818152602001828054610ea690614d94565b8015610ef35780601f10610ec857610100808354040283529160200191610ef3565b820191906000526020600020905b815481529060010190602001808311610ed657829003601f168201915b505050505090806001018054610f0890614d94565b80601f0160208091040260200160405190810160405280929190818152602001828054610f3490614d94565b8015610f815780601f10610f5657610100808354040283529160200191610f81565b820191906000526020600020905b815481529060010190602001808311610f6457829003601f168201915b505050505090806002018054610f9690614d94565b80601f0160208091040260200160405190810160405280929190818152602001828054610fc290614d94565b801561100f5780601f10610fe45761010080835404028352916020019161100f565b820191906000526020600020905b815481529060010190602001808311610ff257829003601f168201915b5050505050905083565b6060806000600660008573ffffffffffffffffffffffffffffffffffffffff1673ffffffffffffffffffffffffffffffffffffffff1681526020019081526020016000206006018054806020026020016040519081016040528092919081815260200182805480156110e057602002820191906000526020600020905b8160009054906101000a900473ffffffffffffffffffffffffffffffffffffffff1673ffffffffffffffffffffffffffffffffffffffff1681526020019060010190808311611096575b505050505090506000815167ffffffffffffffff811115611104576111036144d4565b5b60405190808252806020026020018201604052801561113757816020015b60608152602001906001900390816111225790505b50905060005b825181101561125c57600083828151811061115b5761115a6151e9565b5b60200260200101519050600560008273ffffffffffffffffffffffffffffffffffffffff1673ffffffffffffffffffffffffffffffffffffffff16815260200190815260200160002060030180546111b290614d94565b80601f01602080910402602001604051908101604052809291908181526020018280546111de90614d94565b801561122b5780601f106112005761010080835404028352916020019161122b565b820191906000526020600020905b81548152906001019060200180831161120e57829003601f168201915b5050505050838381518110611243576112426151e9565b5b602002602001018190525050808060010191505061113d565b508181935093505050915091565b806000600660008373ffffffffffffffffffffffffffffffffffffffff1673ffffffffffffffffffffffffffffffffffffffff1681526020019081526020016000206040518060e00160405290816000820180546112c790614d94565b80601f01602080910402602001604051908101604052809291908181526020018280546112f390614d94565b80156113405780601f1061131557610100808354040283529160200191611340565b820191906000526020600020905b81548152906001019060200180831161132357829003601f168201915b50505050508152602001600182015481526020016002820160009054906101000a900473ffffffffffffffffffffffffffffffffffffffff1673ffffffffffffffffffffffffffffffffffffffff1673ffffffffffffffffffffffffffffffffffffffff1681526020016003820180546113b990614d94565b80601f01602080910402602001604051908101604052809291908181526020018280546113e590614d94565b80156114325780601f1061140757610100808354040283529160200191611432565b820191906000526020600020905b81548152906001019060200180831161141557829003601f168201915b5050505050815260200160048201805461144b90614d94565b80601f016020809104026020016040519081016040528092919081815260200182805461147790614d94565b80156114c45780601f10611499576101008083540402835291602001916114c4565b820191906000526020600020905b8154815290600101906020018083116114a757829003601f168201915b5050505050815260200160058201805480602002602001604051908101604052809291908181526020016000905b8282101561159e57838290600052602060002001805461151190614d94565b80601f016020809104026020016040519081016040528092919081815260200182805461153d90614d94565b801561158a5780601f1061155f5761010080835404028352916020019161158a565b820191906000526020600020905b81548152906001019060200180831161156d57829003601f168201915b5050505050815260200190600101906114f2565b5050505081526020016006820180548060200260200160405190810160405280929190818152602001828054801561162b57602002820191906000526020600020905b8160009054906101000a900473ffffffffffffffffffffffffffffffffffffffff1673ffffffffffffffffffffffffffffffffffffffff16815260200190600101908083116115e1575b5050505050815250509050600073ffffffffffffffffffffffffffffffffffffffff16816040015173ffffffffffffffffffffffffffffffffffffffff161161167357600080fd5b505050565b6001818154811061168857600080fd5b906000526020600020016000915054906101000a900473ffffffffffffffffffffffffffffffffffffffff1681565b6000600560008373ffffffffffffffffffffffffffffffffffffffff1673ffffffffffffffffffffffffffffffffffffffff168152602001908152602001600020600701549050919050565b600073ffffffffffffffffffffffffffffffffffffffff16600660003373ffffffffffffffffffffffffffffffffffffffff1673ffffffffffffffffffffffffffffffffffffffff16815260200190815260200160002060020160009054906101000a900473ffffffffffffffffffffffffffffffffffffffff1673ffffffffffffffffffffffffffffffffffffffff16116117d4576040517f08c379a00000000000000000000000000000000000000000000000000000000081526004016117cb9061528a565b60405180910390fd5b816000600560008373ffffffffffffffffffffffffffffffffffffffff1673ffffffffffffffffffffffffffffffffffffffff1681526020019081526020016000206040518061010001604052908160008201805461183290614d94565b80601f016020809104026020016040519081016040528092919081815260200182805461185e90614d94565b80156118ab5780601f10611880576101008083540402835291602001916118ab565b820191906000526020600020905b81548152906001019060200180831161188e57829003601f168201915b505050505081526020016001820160009054906101000a900473ffffffffffffffffffffffffffffffffffffffff1673ffffffffffffffffffffffffffffffffffffffff1673ffffffffffffffffffffffffffffffffffffffff16815260200160028201805461191a90614d94565b80601f016020809104026020016040519081016040528092919081815260200182805461194690614d94565b80156119935780601f1061196857610100808354040283529160200191611993565b820191906000526020600020905b81548152906001019060200180831161197657829003601f168201915b505050505081526020016003820180546119ac90614d94565b80601f01602080910402602001604051908101604052809291908181526020018280546119d890614d94565b8015611a255780601f106119fa57610100808354040283529160200191611a25565b820191906000526020600020905b815481529060010190602001808311611a0857829003601f168201915b5050505050815260200160048201805480602002602001604051908101604052809291908181526020018280548015611ab357602002820191906000526020600020905b8160009054906101000a900473ffffffffffffffffffffffffffffffffffffffff1673ffffffffffffffffffffffffffffffffffffffff1681526020019060010190808311611a69575b5050505050815260200160058201805480602002602001604051908101604052809291908181526020018280548015611b3357602002820191906000526020600020906000905b82829054906101000a900461ffff1661ffff1681526020019060020190602082600101049283019260010382029150808411611afa5790505b505050505081526020016006820160009054906101000a900461ffff1661ffff1661ffff1681526020016007820154815250509050600073ffffffffffffffffffffffffffffffffffffffff16816020015173ffffffffffffffffffffffffffffffffffffffff1611611ba557600080fd5b600960003373ffffffffffffffffffffffffffffffffffffffff1673ffffffffffffffffffffffffffffffffffffffff16815260200190815260200160002060008573ffffffffffffffffffffffffffffffffffffffff1673ffffffffffffffffffffffffffffffffffffffff16815260200190815260200160002060009054906101000a900460ff1615611c6f576040517f08c379a0000000000000000000000000000000000000000000000000000000008152600401611c669061531c565b60405180910390fd5b600560008573ffffffffffffffffffffffffffffffffffffffff1673ffffffffffffffffffffffffffffffffffffffff1681526020019081526020016000206005018390806001815401808255809150506001900390600052602060002090601091828204019190066002029091909190916101000a81548161ffff021916908361ffff1602179055506001600960003373ffffffffffffffffffffffffffffffffffffffff1673ffffffffffffffffffffffffffffffffffffffff16815260200190815260200160002060008673ffffffffffffffffffffffffffffffffffffffff1673ffffffffffffffffffffffffffffffffffffffff16815260200190815260200160002060006101000a81548160ff0219169083151502179055506000611d9985613773565b90507f828f7b0838fcd86d7df05a8882f051d03140464731027daa9cac50864c3e5e9d858583604051611dce9392919061533c565b60405180910390a15050505050565b600360009054906101000a900473ffffffffffffffffffffffffffffffffffffffff1681565b600460009054906101000a900473ffffffffffffffffffffffffffffffffffffffff1681565b6000600660008673ffffffffffffffffffffffffffffffffffffffff1673ffffffffffffffffffffffffffffffffffffffff1681526020019081526020016000209050600073ffffffffffffffffffffffffffffffffffffffff168160020160009054906101000a900473ffffffffffffffffffffffffffffffffffffffff1673ffffffffffffffffffffffffffffffffffffffff161115611eca57600080fd5b6040518060e001604052808781526020018581526020018673ffffffffffffffffffffffffffffffffffffffff168152602001838152602001848152602001600067ffffffffffffffff811115611f2457611f236144d4565b5b604051908082528060200260200182016040528015611f5757816020015b6060815260200190600190039081611f425790505b508152602001600067ffffffffffffffff811115611f7857611f776144d4565b5b604051908082528060200260200182016040528015611fa65781602001602082028036833780820191505090505b50815250600660008773ffffffffffffffffffffffffffffffffffffffff1673ffffffffffffffffffffffffffffffffffffffff1681526020019081526020016000206000820151816000019081611ffe9190615026565b506020820151816001015560408201518160020160006101000a81548173ffffffffffffffffffffffffffffffffffffffff021916908373ffffffffffffffffffffffffffffffffffffffff16021790555060608201518160030190816120659190615026565b50608082015181600401908161207b9190615026565b5060a08201518160050190805190602001906120989291906141a0565b5060c08201518160060190805190602001906120b592919061406c565b509050507ff0c358f29581a43889abe78660babebd0ac62878d0ed89571af6c2168bbcda0c856040516120e891906153bf565b60405180910390a1505050505050565b60076020528160005260406000206020528060005260406000206000915091509054906101000a900461ffff1681565b6060806000600180549050905060008167ffffffffffffffff811115612151576121506144d4565b5b60405190808252806020026020018201604052801561217f5781602001602082028036833780820191505090505b50905060008267ffffffffffffffff81111561219e5761219d6144d4565b5b6040519080825280602002602001820160405280156121d157816020015b60608152602001906001900390816121bc5790505b50905060005b83811015612635576000600182815481106121f5576121f46151e9565b5b9060005260206000200160009054906101000a900473ffffffffffffffffffffffffffffffffffffffff1690506000600560008373ffffffffffffffffffffffffffffffffffffffff1673ffffffffffffffffffffffffffffffffffffffff1681526020019081526020016000206040518061010001604052908160008201805461227f90614d94565b80601f01602080910402602001604051908101604052809291908181526020018280546122ab90614d94565b80156122f85780601f106122cd576101008083540402835291602001916122f8565b820191906000526020600020905b8154815290600101906020018083116122db57829003601f168201915b505050505081526020016001820160009054906101000a900473ffffffffffffffffffffffffffffffffffffffff1673ffffffffffffffffffffffffffffffffffffffff1673ffffffffffffffffffffffffffffffffffffffff16815260200160028201805461236790614d94565b80601f016020809104026020016040519081016040528092919081815260200182805461239390614d94565b80156123e05780601f106123b5576101008083540402835291602001916123e0565b820191906000526020600020905b8154815290600101906020018083116123c357829003601f168201915b505050505081526020016003820180546123f990614d94565b80601f016020809104026020016040519081016040528092919081815260200182805461242590614d94565b80156124725780601f1061244757610100808354040283529160200191612472565b820191906000526020600020905b81548152906001019060200180831161245557829003601f168201915b505050505081526020016004820180548060200260200160405190810160405280929190818152602001828054801561250057602002820191906000526020600020905b8160009054906101000a900473ffffffffffffffffffffffffffffffffffffffff1673ffffffffffffffffffffffffffffffffffffffff16815260200190600101908083116124b6575b505050505081526020016005820180548060200260200160405190810160405280929190818152602001828054801561258057602002820191906000526020600020906000905b82829054906101000a900461ffff1661ffff16815260200190600201906020826001010492830192600103820291508084116125475790505b505050505081526020016006820160009054906101000a900461ffff1661ffff1661ffff1681526020016007820154815250509050818584815181106125c9576125c86151e9565b5b602002602001019073ffffffffffffffffffffffffffffffffffffffff16908173ffffffffffffffffffffffffffffffffffffffff1681525050806060015184848151811061261b5761261a6151e9565b5b6020026020010181905250505080806001019150506121d7565b508181945094505050509091565b600560205280600052604060002060009150905080600001805461266690614d94565b80601f016020809104026020016040519081016040528092919081815260200182805461269290614d94565b80156126df5780601f106126b4576101008083540402835291602001916126df565b820191906000526020600020905b8154815290600101906020018083116126c257829003601f168201915b5050505050908060010160009054906101000a900473ffffffffffffffffffffffffffffffffffffffff169080600201805461271a90614d94565b80601f016020809104026020016040519081016040528092919081815260200182805461274690614d94565b80156127935780601f1061276857610100808354040283529160200191612793565b820191906000526020600020905b81548152906001019060200180831161277657829003601f168201915b5050505050908060030180546127a890614d94565b80601f01602080910402602001604051908101604052809291908181526020018280546127d490614d94565b80156128215780601f106127f657610100808354040283529160200191612821565b820191906000526020600020905b81548152906001019060200180831161280457829003601f168201915b5050505050908060060160009054906101000a900461ffff16908060070154905086565b600860008573ffffffffffffffffffffffffffffffffffffffff1673ffffffffffffffffffffffffffffffffffffffff168152602001908152602001600020604051806060016040528085815260200184815260200183815250908060018154018082558091505060019003906000526020600020906003020160009091909190915060008201518160000190816128dd9190615026565b5060208201518160010190816128f39190615026565b5060408201518160020190816129099190615026565b5050506000600660008673ffffffffffffffffffffffffffffffffffffffff1673ffffffffffffffffffffffffffffffffffffffff16815260200190815260200160002060050190506000829050818190806001815401808255809150506001900390600052602060002001600090919091909150908161298a9190615026565b50600182805490501115612a30576000600360009054906101000a900473ffffffffffffffffffffffffffffffffffffffff1690508073ffffffffffffffffffffffffffffffffffffffff16633be389e18888876040518463ffffffff1660e01b81526004016129fc939291906153ed565b600060405180830381600087803b158015612a1657600080fd5b505af1158015612a2a573d6000803e3d6000fd5b50505050505b505050505050565b806000600660008373ffffffffffffffffffffffffffffffffffffffff1673ffffffffffffffffffffffffffffffffffffffff1681526020019081526020016000206040518060e0016040529081600082018054612a9590614d94565b80601f0160208091040260200160405190810160405280929190818152602001828054612ac190614d94565b8015612b0e5780601f10612ae357610100808354040283529160200191612b0e565b820191906000526020600020905b815481529060010190602001808311612af157829003601f168201915b50505050508152602001600182015481526020016002820160009054906101000a900473ffffffffffffffffffffffffffffffffffffffff1673ffffffffffffffffffffffffffffffffffffffff1673ffffffffffffffffffffffffffffffffffffffff168152602001600382018054612b8790614d94565b80601f0160208091040260200160405190810160405280929190818152602001828054612bb390614d94565b8015612c005780601f10612bd557610100808354040283529160200191612c00565b820191906000526020600020905b815481529060010190602001808311612be357829003601f168201915b50505050508152602001600482018054612c1990614d94565b80601f0160208091040260200160405190810160405280929190818152602001828054612c4590614d94565b8015612c925780601f10612c6757610100808354040283529160200191612c92565b820191906000526020600020905b815481529060010190602001808311612c7557829003601f168201915b5050505050815260200160058201805480602002602001604051908101604052809291908181526020016000905b82821015612d6c578382906000526020600020018054612cdf90614d94565b80601f0160208091040260200160405190810160405280929190818152602001828054612d0b90614d94565b8015612d585780601f10612d2d57610100808354040283529160200191612d58565b820191906000526020600020905b815481529060010190602001808311612d3b57829003601f168201915b505050505081526020019060010190612cc0565b50505050815260200160068201805480602002602001604051908101604052809291908181526020018280548015612df957602002820191906000526020600020905b8160009054906101000a900473ffffffffffffffffffffffffffffffffffffffff1673ffffffffffffffffffffffffffffffffffffffff1681526020019060010190808311612daf575b5050505050815250509050600073ffffffffffffffffffffffffffffffffffffffff16816040015173ffffffffffffffffffffffffffffffffffffffff1611612e4157600080fd5b836000600560008373ffffffffffffffffffffffffffffffffffffffff1673ffffffffffffffffffffffffffffffffffffffff16815260200190815260200160002060405180610100016040529081600082018054612e9f90614d94565b80601f0160208091040260200160405190810160405280929190818152602001828054612ecb90614d94565b8015612f185780601f10612eed57610100808354040283529160200191612f18565b820191906000526020600020905b815481529060010190602001808311612efb57829003601f168201915b505050505081526020016001820160009054906101000a900473ffffffffffffffffffffffffffffffffffffffff1673ffffffffffffffffffffffffffffffffffffffff1673ffffffffffffffffffffffffffffffffffffffff168152602001600282018054612f8790614d94565b80601f0160208091040260200160405190810160405280929190818152602001828054612fb390614d94565b80156130005780601f10612fd557610100808354040283529160200191613000565b820191906000526020600020905b815481529060010190602001808311612fe357829003601f168201915b5050505050815260200160038201805461301990614d94565b80601f016020809104026020016040519081016040528092919081815260200182805461304590614d94565b80156130925780601f1061306757610100808354040283529160200191613092565b820191906000526020600020905b81548152906001019060200180831161307557829003601f168201915b505050505081526020016004820180548060200260200160405190810160405280929190818152602001828054801561312057602002820191906000526020600020905b8160009054906101000a900473ffffffffffffffffffffffffffffffffffffffff1673ffffffffffffffffffffffffffffffffffffffff16815260200190600101908083116130d6575b50505050508152602001600582018054806020026020016040519081016040528092919081815260200182805480156131a057602002820191906000526020600020906000905b82829054906101000a900461ffff1661ffff16815260200190600201906020826001010492830192600103820291508084116131675790505b505050505081526020016006820160009054906101000a900461ffff1661ffff1661ffff1681526020016007820154815250509050600073ffffffffffffffffffffffffffffffffffffffff16816020015173ffffffffffffffffffffffffffffffffffffffff161161321257600080fd5b6000600660008773ffffffffffffffffffffffffffffffffffffffff1673ffffffffffffffffffffffffffffffffffffffff16815260200190815260200160002090506000600560008973ffffffffffffffffffffffffffffffffffffffff1673ffffffffffffffffffffffffffffffffffffffff16815260200190815260200160002090506001600760008973ffffffffffffffffffffffffffffffffffffffff1673ffffffffffffffffffffffffffffffffffffffff16815260200190815260200160002060008a73ffffffffffffffffffffffffffffffffffffffff1673ffffffffffffffffffffffffffffffffffffffff16815260200190815260200160002060009054906101000a900461ffff1661ffff1610613369576040517f08c379a00000000000000000000000000000000000000000000000000000000081526004016133609061547e565b60405180910390fd5b6000600860008973ffffffffffffffffffffffffffffffffffffffff1673ffffffffffffffffffffffffffffffffffffffff168152602001908152602001600020905060008360050180549050116133f6576040517f08c379a00000000000000000000000000000000000000000000000000000000081526004016133ed906154ea565b60405180910390fd5b6000816001838054905061340a919061550a565b8154811061341b5761341a6151e9565b5b90600052602060002090600302019050836006018a9080600181540180825580915050600190039060005260206000200160009091909190916101000a81548173ffffffffffffffffffffffffffffffffffffffff021916908373ffffffffffffffffffffffffffffffffffffffff16021790555060008460060180549050905080600760008c73ffffffffffffffffffffffffffffffffffffffff1673ffffffffffffffffffffffffffffffffffffffff16815260200190815260200160002060008d73ffffffffffffffffffffffffffffffffffffffff1673ffffffffffffffffffffffffffffffffffffffff16815260200190815260200160002060006101000a81548161ffff021916908361ffff160217905550836004018a9080600181540180825580915050600190039060005260206000200160009091909190916101000a81548173ffffffffffffffffffffffffffffffffffffffff021916908373ffffffffffffffffffffffffffffffffffffffff16021790555061362a8b8560040180548060200260200160405190810160405280929190818152602001828054801561362057602002820191906000526020600020905b8160009054906101000a900473ffffffffffffffffffffffffffffffffffffffff1673ffffffffffffffffffffffffffffffffffffffff16815260200190600101908083116135d6575b5050505050613d75565b6000600260009054906101000a900473ffffffffffffffffffffffffffffffffffffffff1690508073ffffffffffffffffffffffffffffffffffffffff16631fe6e5098c8e86600001876002016040518563ffffffff1660e01b815260040161369694939291906155c2565b600060405180830381600087803b1580156136b057600080fd5b505af11580156136c4573d6000803e3d6000fd5b505050507fe239c4e608cb32aaf8ef7214f811e28ea27c91cad9f719be74579c18fc2e98318b866000018e6040516136fe93929190615661565b60405180910390a1505050505050505050505050565b60008061372084613e9e565b90506000600a8461ffff161161373757600a61373a565b600b5b60ff1690506000600a6003838561375191906156b2565b61375b91906156b2565b6137659190615723565b905080935050505092915050565b6000816000600560008373ffffffffffffffffffffffffffffffffffffffff1673ffffffffffffffffffffffffffffffffffffffff168152602001908152602001600020604051806101000160405290816000820180546137d390614d94565b80601f01602080910402602001604051908101604052809291908181526020018280546137ff90614d94565b801561384c5780601f106138215761010080835404028352916020019161384c565b820191906000526020600020905b81548152906001019060200180831161382f57829003601f168201915b505050505081526020016001820160009054906101000a900473ffffffffffffffffffffffffffffffffffffffff1673ffffffffffffffffffffffffffffffffffffffff1673ffffffffffffffffffffffffffffffffffffffff1681526020016002820180546138bb90614d94565b80601f01602080910402602001604051908101604052809291908181526020018280546138e790614d94565b80156139345780601f1061390957610100808354040283529160200191613934565b820191906000526020600020905b81548152906001019060200180831161391757829003601f168201915b5050505050815260200160038201805461394d90614d94565b80601f016020809104026020016040519081016040528092919081815260200182805461397990614d94565b80156139c65780601f1061399b576101008083540402835291602001916139c6565b820191906000526020600020905b8154815290600101906020018083116139a957829003601f168201915b5050505050815260200160048201805480602002602001604051908101604052809291908181526020018280548015613a5457602002820191906000526020600020905b8160009054906101000a900473ffffffffffffffffffffffffffffffffffffffff1673ffffffffffffffffffffffffffffffffffffffff1681526020019060010190808311613a0a575b5050505050815260200160058201805480602002602001604051908101604052809291908181526020018280548015613ad457602002820191906000526020600020906000905b82829054906101000a900461ffff1661ffff1681526020019060020190602082600101049283019260010382029150808411613a9b5790505b505050505081526020016006820160009054906101000a900461ffff1661ffff1661ffff1681526020016007820154815250509050600073ffffffffffffffffffffffffffffffffffffffff16816020015173ffffffffffffffffffffffffffffffffffffffff1611613b4657600080fd5b6000600560008673ffffffffffffffffffffffffffffffffffffffff1673ffffffffffffffffffffffffffffffffffffffff16815260200190815260200160002090506000805b8260050180549050811015613bf457826005018181548110613bb257613bb16151e9565b5b90600052602060002090601091828204019190066002029054906101000a900461ffff1661ffff1682613be59190615754565b91508080600101915050613b8d565b50600080836005018054905011613c0c576000613c20565b826005018054905082613c1f9190615723565b5b90506000600382613c319190615792565b90506000811215613c4c57600281613c4991906157d5565b90505b6000613ce3856003018054613c6090614d94565b80601f0160208091040260200160405190810160405280929190818152602001828054613c8c90614d94565b8015613cd95780601f10613cae57610100808354040283529160200191613cd9565b820191906000526020600020905b815481529060010190602001808311613cbc57829003601f168201915b5050505050613e9e565b90506000600a8660060160009054906101000a900461ffff1661ffff1611613d0c57600a613d0f565b600b5b60ff1690506000600a846003613d25919061584d565b8385613d3191906157d5565b613d3b91906157d5565b613d459190615891565b905060008113613d56576000613d58565b805b876007018190555086600701549950505050505050505050919050565b6000600560008473ffffffffffffffffffffffffffffffffffffffff1673ffffffffffffffffffffffffffffffffffffffff168152602001908152602001600020905081816004019080519060200190613dd092919061406c565b50600460009054906101000a900473ffffffffffffffffffffffffffffffffffffffff1673ffffffffffffffffffffffffffffffffffffffff1663c6f53ac484846040518363ffffffff1660e01b8152600401613e2e9291906158fb565b600060405180830381600087803b158015613e4857600080fd5b505af1158015613e5c573d6000803e3d6000fd5b505050507f7057cf0ac6c6fbdd30a89ab8b5c37ef38e7b49b1404f0318c52ea3ad500c0de38383604051613e919291906158fb565b60405180910390a1505050565b6000604051602001613eaf90615977565b6040516020818303038152906040528051906020012082604051602001613ed69190614e01565b6040516020818303038152906040528051906020012003613efa57600a9050614067565b604051602001613f09906159d8565b6040516020818303038152906040528051906020012082604051602001613f309190614e01565b6040516020818303038152906040528051906020012003613f5457600c9050614067565b604051602001613f6390615a39565b6040516020818303038152906040528051906020012082604051602001613f8a9190614e01565b6040516020818303038152906040528051906020012003613fae57600e9050614067565b604051602001613fbd90615a9a565b6040516020818303038152906040528051906020012082604051602001613fe49190614e01565b604051602081830303815290604052805190602001200361400857600b9050614067565b60405160200161401790615afb565b604051602081830303815290604052805190602001208260405160200161403e9190614e01565b604051602081830303815290604052805190602001200361406257600d9050614067565b600a90505b919050565b8280548282559060005260206000209081019282156140e5579160200282015b828111156140e45782518260006101000a81548173ffffffffffffffffffffffffffffffffffffffff021916908373ffffffffffffffffffffffffffffffffffffffff1602179055509160200191906001019061408c565b5b5090506140f291906141f9565b5090565b82805482825590600052602060002090600f0160109004810192821561418f5791602002820160005b8382111561415f57835183826101000a81548161ffff021916908361ffff160217905550926020019260020160208160010104928301926001030261411f565b801561418d5782816101000a81549061ffff021916905560020160208160010104928301926001030261415f565b505b50905061419c91906141f9565b5090565b8280548282559060005260206000209081019282156141e8579160200282015b828111156141e75782518290816141d79190615026565b50916020019190600101906141c0565b5b5090506141f59190614216565b5090565b5b808211156142125760008160009055506001016141fa565b5090565b5b80821115614236576000818161422d919061423a565b50600101614217565b5090565b50805461424690614d94565b6000825580601f106142585750614277565b601f01602090049060005260206000209081019061427691906141f9565b5b50565b6000819050919050565b61428d8161427a565b82525050565b60006020820190506142a86000830184614284565b92915050565b6000604051905090565b600080fd5b600080fd5b600073ffffffffffffffffffffffffffffffffffffffff82169050919050565b60006142ed826142c2565b9050919050565b6142fd816142e2565b811461430857600080fd5b50565b60008135905061431a816142f4565b92915050565b600060208284031215614336576143356142b8565b5b60006143448482850161430b565b91505092915050565b600081519050919050565b600082825260208201905092915050565b60005b8381101561438757808201518184015260208101905061436c565b60008484015250505050565b6000601f19601f8301169050919050565b60006143af8261434d565b6143b98185614358565b93506143c9818560208601614369565b6143d281614393565b840191505092915050565b6143e6816142e2565b82525050565b600060a082019050818103600083015261440681886143a4565b90506144156020830187614284565b61442260408301866143dd565b818103606083015261443481856143a4565b9050818103608083015261444881846143a4565b90509695505050505050565b6000806040838503121561446b5761446a6142b8565b5b60006144798582860161430b565b925050602061448a8582860161430b565b9150509250929050565b60008115159050919050565b6144a981614494565b82525050565b60006020820190506144c460008301846144a0565b92915050565b600080fd5b600080fd5b7f4e487b7100000000000000000000000000000000000000000000000000000000600052604160045260246000fd5b61450c82614393565b810181811067ffffffffffffffff8211171561452b5761452a6144d4565b5b80604052505050565b600061453e6142ae565b905061454a8282614503565b919050565b600067ffffffffffffffff82111561456a576145696144d4565b5b61457382614393565b9050602081019050919050565b82818337600083830152505050565b60006145a261459d8461454f565b614534565b9050828152602081018484840111156145be576145bd6144cf565b5b6145c9848285614580565b509392505050565b600082601f8301126145e6576145e56144ca565b5b81356145f684826020860161458f565b91505092915050565b600061ffff82169050919050565b614616816145ff565b811461462157600080fd5b50565b6000813590506146338161460d565b92915050565b600080600080600060a08688031215614655576146546142b8565b5b60006146638882890161430b565b955050602086013567ffffffffffffffff811115614684576146836142bd565b5b614690888289016145d1565b945050604086013567ffffffffffffffff8111156146b1576146b06142bd565b5b6146bd888289016145d1565b935050606086013567ffffffffffffffff8111156146de576146dd6142bd565b5b6146ea888289016145d1565b92505060806146fb88828901614624565b9150509295509295909350565b6000819050919050565b600061472d614728614723846142c2565b614708565b6142c2565b9050919050565b600061473f82614712565b9050919050565b600061475182614734565b9050919050565b61476181614746565b82525050565b600060208201905061477c6000830184614758565b92915050565b61478b8161427a565b811461479657600080fd5b50565b6000813590506147a881614782565b92915050565b600080604083850312156147c5576147c46142b8565b5b60006147d38582860161430b565b92505060206147e485828601614799565b9150509250929050565b6000606082019050818103600083015261480881866143a4565b9050818103602083015261481c81856143a4565b9050818103604083015261483081846143a4565b9050949350505050565b600081519050919050565b600082825260208201905092915050565b6000819050602082019050919050565b61486f816142e2565b82525050565b60006148818383614866565b60208301905092915050565b6000602082019050919050565b60006148a58261483a565b6148af8185614845565b93506148ba83614856565b8060005b838110156148eb5781516148d28882614875565b97506148dd8361488d565b9250506001810190506148be565b5085935050505092915050565b600081519050919050565b600082825260208201905092915050565b6000819050602082019050919050565b600082825260208201905092915050565b60006149408261434d565b61494a8185614924565b935061495a818560208601614369565b61496381614393565b840191505092915050565b600061497a8383614935565b905092915050565b6000602082019050919050565b600061499a826148f8565b6149a48185614903565b9350836020820285016149b685614914565b8060005b858110156149f257848403895281516149d3858261496e565b94506149de83614982565b925060208a019950506001810190506149ba565b50829750879550505050505092915050565b60006040820190508181036000830152614a1e818561489a565b90508181036020830152614a32818461498f565b90509392505050565b600060208284031215614a5157614a506142b8565b5b6000614a5f84828501614799565b91505092915050565b6000602082019050614a7d60008301846143dd565b92915050565b60008060408385031215614a9a57614a996142b8565b5b6000614aa88582860161430b565b9250506020614ab985828601614624565b9150509250929050565b6000614ace82614734565b9050919050565b614ade81614ac3565b82525050565b6000602082019050614af96000830184614ad5565b92915050565b6000614b0a82614734565b9050919050565b614b1a81614aff565b82525050565b6000602082019050614b356000830184614b11565b92915050565b600080600080600060a08688031215614b5757614b566142b8565b5b600086013567ffffffffffffffff811115614b7557614b746142bd565b5b614b81888289016145d1565b9550506020614b928882890161430b565b9450506040614ba388828901614799565b935050606086013567ffffffffffffffff811115614bc457614bc36142bd565b5b614bd0888289016145d1565b925050608086013567ffffffffffffffff811115614bf157614bf06142bd565b5b614bfd888289016145d1565b9150509295509295909350565b614c13816145ff565b82525050565b6000602082019050614c2e6000830184614c0a565b92915050565b600060c0820190508181036000830152614c4e81896143a4565b9050614c5d60208301886143dd565b8181036040830152614c6f81876143a4565b90508181036060830152614c8381866143a4565b9050614c926080830185614c0a565b614c9f60a0830184614284565b979650505050505050565b60008060008060808587031215614cc457614cc36142b8565b5b6000614cd28782880161430b565b945050602085013567ffffffffffffffff811115614cf357614cf26142bd565b5b614cff878288016145d1565b935050604085013567ffffffffffffffff811115614d2057614d1f6142bd565b5b614d2c878288016145d1565b925050606085013567ffffffffffffffff811115614d4d57614d4c6142bd565b5b614d59878288016145d1565b91505092959194509250565b7f4e487b7100000000000000000000000000000000000000000000000000000000600052602260045260246000fd5b60006002820490506001821680614dac57607f821691505b602082108103614dbf57614dbe614d65565b5b50919050565b600081905092915050565b6000614ddb8261434d565b614de58185614dc5565b9350614df5818560208601614369565b80840191505092915050565b6000614e0d8284614dd0565b915081905092915050565b7f446f63746f7220616c7265616479207265676973746572656400000000000000600082015250565b6000614e4e601983614358565b9150614e5982614e18565b602082019050919050565b60006020820190508181036000830152614e7d81614e41565b9050919050565b60008190508160005260206000209050919050565b60006020601f8301049050919050565b600082821b905092915050565b600060088302614ee67fffffffffffffffffffffffffffffffffffffffffffffffffffffffffffffffff82614ea9565b614ef08683614ea9565b95508019841693508086168417925050509392505050565b6000614f23614f1e614f198461427a565b614708565b61427a565b9050919050565b6000819050919050565b614f3d83614f08565b614f51614f4982614f2a565b848454614eb6565b825550505050565b600090565b614f66614f59565b614f71818484614f34565b505050565b5b81811015614f9557614f8a600082614f5e565b600181019050614f77565b5050565b601f821115614fda57614fab81614e84565b614fb484614e99565b81016020851015614fc3578190505b614fd7614fcf85614e99565b830182614f76565b50505b505050565b600082821c905092915050565b6000614ffd60001984600802614fdf565b1980831691505092915050565b60006150168383614fec565b9150826002028217905092915050565b61502f8261434d565b67ffffffffffffffff811115615048576150476144d4565b5b6150528254614d94565b61505d828285614f99565b600060209050601f831160018114615090576000841561507e578287015190505b615088858261500a565b8655506150f0565b601f19841661509e86614e84565b60005b828110156150c6578489015182556001820191506020850194506020810190506150a1565b868310156150e357848901516150df601f891682614fec565b8355505b6001600288020188555050505b505050505050565b7f4e487b7100000000000000000000000000000000000000000000000000000000600052601160045260246000fd5b60006151328261427a565b91507fffffffffffffffffffffffffffffffffffffffffffffffffffffffffffffffff8203615164576151636150f8565b5b600182019050919050565b7f5265676973746572656420617320446f63746f72000000000000000000000000600082015250565b60006151a5601483614358565b91506151b08261516f565b602082019050919050565b60006040820190506151d060008301846143dd565b81810360208301526151e181615198565b905092915050565b7f4e487b7100000000000000000000000000000000000000000000000000000000600052603260045260246000fd5b7f4f6e6c792070617469656e74732063616e20657865637574652074686973206660008201527f756e6374696f6e00000000000000000000000000000000000000000000000000602082015250565b6000615274602783614358565b915061527f82615218565b604082019050919050565b600060208201905081810360008301526152a381615267565b9050919050565b7f50617469656e742068617320616c72656164792072617465642074686973206460008201527f6f63746f72000000000000000000000000000000000000000000000000000000602082015250565b6000615306602583614358565b9150615311826152aa565b604082019050919050565b60006020820190508181036000830152615335816152f9565b9050919050565b600060608201905061535160008301866143dd565b61535e6020830185614c0a565b61536b6040830184614284565b949350505050565b7f526567697374657265642061732050617469656e740000000000000000000000600082015250565b60006153a9601583614358565b91506153b482615373565b602082019050919050565b60006040820190506153d460008301846143dd565b81810360208301526153e58161539c565b905092915050565b600060608201905061540260008301866143dd565b818103602083015261541481856143a4565b9050818103604083015261542881846143a4565b9050949350505050565b7f446f63746f7220616c7265616479206861732061636365737300000000000000600082015250565b6000615468601983614358565b915061547382615432565b602082019050919050565b600060208201905081810360008301526154978161545b565b9050919050565b7f50617469656e7420686173206e6f2066696c6573000000000000000000000000600082015250565b60006154d4601483614358565b91506154df8261549e565b602082019050919050565b60006020820190508181036000830152615503816154c7565b9050919050565b60006155158261427a565b91506155208361427a565b9250828203905081811115615538576155376150f8565b5b92915050565b6000815461554b81614d94565b6155558186614358565b945060018216600081146155705760018114615586576155b9565b60ff1983168652811515602002860193506155b9565b61558f85614e84565b60005b838110156155b157815481890152600182019150602081019050615592565b808801955050505b50505092915050565b60006080820190506155d760008301876143dd565b6155e460208301866143dd565b81810360408301526155f6818561553e565b9050818103606083015261560a818461553e565b905095945050505050565b7f4772616e7465642061636365737320746f20646f63746f720000000000000000600082015250565b600061564b601883614358565b915061565682615615565b602082019050919050565b600060808201905061567660008301866143dd565b81810360208301526156878161563e565b9050818103604083015261569b818561553e565b90506156aa60608301846143dd565b949350505050565b60006156bd8261427a565b91506156c88361427a565b92508282026156d68161427a565b915082820484148315176156ed576156ec6150f8565b5b5092915050565b7f4e487b7100000000000000000000000000000000000000000000000000000000600052601260045260246000fd5b600061572e8261427a565b91506157398361427a565b925082615749576157486156f4565b5b828204905092915050565b600061575f8261427a565b915061576a8361427a565b9250828201905080821115615782576157816150f8565b5b92915050565b6000819050919050565b600061579d82615788565b91506157a883615788565b92508282039050818112600084121682821360008512151617156157cf576157ce6150f8565b5b92915050565b60006157e082615788565b91506157eb83615788565b92508282026157f981615788565b91507f80000000000000000000000000000000000000000000000000000000000000008414600084121615615831576158306150f8565b5b8282058414831517615846576158456150f8565b5b5092915050565b600061585882615788565b915061586383615788565b92508282019050828112156000831216838212600084121516171561588b5761588a6150f8565b5b92915050565b600061589c82615788565b91506158a783615788565b9250826158b7576158b66156f4565b5b600160000383147f8000000000000000000000000000000000000000000000000000000000000000831416156158f0576158ef6150f8565b5b828205905092915050565b600060408201905061591060008301856143dd565b8181036020830152615922818461489a565b90509392505050565b7f47656e6572616c2050726163746974696f6e6572000000000000000000000000600082015250565b6000615961601483614dc5565b915061596c8261592b565b601482019050919050565b600061598282615954565b9150819050919050565b7f43617264696f6c6f676973740000000000000000000000000000000000000000600082015250565b60006159c2600c83614dc5565b91506159cd8261598c565b600c82019050919050565b60006159e3826159b5565b9150819050919050565b7f4e6575726f6c6f67697374000000000000000000000000000000000000000000600082015250565b6000615a23600b83614dc5565b9150615a2e826159ed565b600b82019050919050565b6000615a4482615a16565b9150819050919050565b7f4465726d61746f6c6f6769737400000000000000000000000000000000000000600082015250565b6000615a84600d83614dc5565b9150615a8f82615a4e565b600d82019050919050565b6000615aa582615a77565b9150819050919050565b7f4f6e636f6c6f6769737400000000000000000000000000000000000000000000600082015250565b6000615ae5600a83614dc5565b9150615af082615aaf565b600a82019050919050565b6000615b0682615ad8565b915081905091905056fea264697066735822122095a5a9470deaa1fa3e67d95d4533e14fa960a3d66fa351809263e665e668604864736f6c63430008180033",
  "linkReferences": {},
  "deployedLinkReferences": {}
}