{
  "_format": "hh-sol-artifact-1",
  "contractName": "LogsContract",
  "sourceName": "contracts/LogsContract.sol",
  "abi": [
    {
      "anonymous": false,
      "inputs": [
        {
          "indexed": true,
          "internalType": "address",
          "name": "source",
          "type": "address"
        },
        {
          "indexed": false,
          "internalType": "string",
          "name": "encryptedLogData",
          "type": "string"
        },
        {
          "indexed": false,
          "internalType": "uint256",
          "name": "timestamp",
          "type": "uint256"
        }
      ],
      "name": "LogAdded",
      "type": "event"
    },
    {
      "inputs": [
        {
          "internalType": "address",
          "name": "_source",
          "type": "address"
        }
      ],
      "name": "getAllLogs",
      "outputs": [
        {
          "components": [
            {
              "internalType": "address",
              "name": "source",
              "type": "address"
            },
            {
              "internalType": "string",
              "name": "encryptedLogData",
              "type": "string"
            },
            {
              "internalType": "bool",
              "name": "addedToBlockchain",
              "type": "bool"
            },
            {
              "internalType": "uint256",
              "name": "lastUpdate",
              "type": "uint256"
            }
          ],
          "internalType": "struct LogsContract.Log[]",
          "name": "",
          "type": "tuple[]"
        }
      ],
      "stateMutability": "view",
      "type": "function"
    },
    {
      "inputs": [
        {
          "internalType": "address",
          "name": "_source",
          "type": "address"
        }
      ],
      "name": "getLastAddedLog",
      "outputs": [
        {
          "components": [
            {
              "internalType": "address",
              "name": "source",
              "type": "address"
            },
            {
              "internalType": "string",
              "name": "encryptedLogData",
              "type": "string"
            },
            {
              "internalType": "bool",
              "name": "addedToBlockchain",
              "type": "bool"
            },
            {
              "internalType": "uint256",
              "name": "lastUpdate",
              "type": "uint256"
            }
          ],
          "internalType": "struct LogsContract.Log",
          "name": "",
          "type": "tuple"
        }
      ],
      "stateMutability": "view",
      "type": "function"
    },
    {
      "inputs": [
        {
          "internalType": "address",
          "name": "_patient",
          "type": "address"
        },
        {
          "internalType": "string",
          "name": "_fileName",
          "type": "string"
        },
        {
          "internalType": "string",
          "name": "_queryLinkHash",
          "type": "string"
        },
        {
          "internalType": "uint256",
          "name": "_timestamp",
          "type": "uint256"
        }
      ],
      "name": "logPatientRecordCreation",
      "outputs": [],
      "stateMutability": "nonpayable",
      "type": "function"
    },
    {
      "inputs": [
        {
          "internalType": "address",
          "name": "",
          "type": "address"
        },
        {
          "internalType": "uint256",
          "name": "",
          "type": "uint256"
        }
      ],
      "name": "logs",
      "outputs": [
        {
          "internalType": "address",
          "name": "source",
          "type": "address"
        },
        {
          "internalType": "string",
          "name": "encryptedLogData",
          "type": "string"
        },
        {
          "internalType": "bool",
          "name": "addedToBlockchain",
          "type": "bool"
        },
        {
          "internalType": "uint256",
          "name": "lastUpdate",
          "type": "uint256"
        }
      ],
      "stateMutability": "view",
      "type": "function"
    },
    {
      "inputs": [
        {
          "internalType": "address",
          "name": "doctorId",
          "type": "address"
        },
        {
          "internalType": "address[]",
          "name": "newPatientList",
          "type": "address[]"
        }
      ],
      "name": "updateDoctorPatientList",
      "outputs": [],
      "stateMutability": "nonpayable",
      "type": "function"
    },
    {
      "inputs": [
        {
          "internalType": "address",
          "name": "_source",
          "type": "address"
        },
        {
          "internalType": "uint256",
          "name": "_index",
          "type": "uint256"
        }
      ],
      "name": "updateLogStatus",
      "outputs": [],
      "stateMutability": "nonpayable",
      "type": "function"
    }
  ],
  "bytecode": "0x60806040526003600260006101000a81548160ff021916908360ff16021790555034801561002c57600080fd5b506124d48061003c6000396000f3fe608060405234801561001057600080fd5b50600436106100625760003560e01c8063649e6ded14610067578063782ab94014610083578063872d0cef1461009f578063c6f53ac4146100cf578063ca6e103d146100eb578063ee7bafbb1461011b575b600080fd5b610081600480360381019061007c9190611505565b61014e565b005b61009d6004803603810190610098919061168b565b6102b5565b005b6100b960048036038101906100b4919061172a565b610300565b6040516100c69190611872565b60405180910390f35b6100e960048036038101906100e4919061195c565b61055c565b005b6101056004803603810190610100919061172a565b6106c0565b6040516101129190611add565b60405180910390f35b61013560048036038101906101309190611505565b61086a565b6040516101459493929190611b76565b60405180910390f35b6000808373ffffffffffffffffffffffffffffffffffffffff1673ffffffffffffffffffffffffffffffffffffffff1681526020019081526020016000208054905081106101d1576040517f08c379a00000000000000000000000000000000000000000000000000000000081526004016101c890611c0e565b60405180910390fd5b60016000808473ffffffffffffffffffffffffffffffffffffffff1673ffffffffffffffffffffffffffffffffffffffff168152602001908152602001600020828154811061022357610222611c2e565b5b906000526020600020906004020160020160006101000a81548160ff021916908315150217905550426000808473ffffffffffffffffffffffffffffffffffffffff1673ffffffffffffffffffffffffffffffffffffffff168152602001908152602001600020828154811061029c5761029b611c2e565b5b9060005260206000209060040201600301819055505050565b60006102c08561096c565b84846102cb85610c71565b6040516020016102de9493929190611def565b60405160208183030381529060405290506102f98582610dd1565b5050505050565b610308611376565b60008060008473ffffffffffffffffffffffffffffffffffffffff1673ffffffffffffffffffffffffffffffffffffffff168152602001908152602001600020805490501161038c576040517f08c379a000000000000000000000000000000000000000000000000000000000815260040161038390611ecb565b60405180910390fd5b600060016000808573ffffffffffffffffffffffffffffffffffffffff1673ffffffffffffffffffffffffffffffffffffffff168152602001908152602001600020805490506103dc9190611f1a565b90506000808473ffffffffffffffffffffffffffffffffffffffff1673ffffffffffffffffffffffffffffffffffffffff168152602001908152602001600020818154811061042e5761042d611c2e565b5b90600052602060002090600402016040518060800160405290816000820160009054906101000a900473ffffffffffffffffffffffffffffffffffffffff1673ffffffffffffffffffffffffffffffffffffffff1673ffffffffffffffffffffffffffffffffffffffff1681526020016001820180546104ad90611f7d565b80601f01602080910402602001604051908101604052809291908181526020018280546104d990611f7d565b80156105265780601f106104fb57610100808354040283529160200191610526565b820191906000526020600020905b81548152906001019060200180831161050957829003601f168201915b505050505081526020016002820160009054906101000a900460ff16151515158152602001600382015481525050915050919050565b6000805b6003805490508110156105f4578373ffffffffffffffffffffffffffffffffffffffff166003828154811061059857610597611c2e565b5b9060005260206000200160009054906101000a900473ffffffffffffffffffffffffffffffffffffffff1673ffffffffffffffffffffffffffffffffffffffff16036105e757600191506105f4565b8080600101915050610560565b508061065e576003839080600181540180825580915050600190039060005260206000200160009091909190916101000a81548173ffffffffffffffffffffffffffffffffffffffff021916908373ffffffffffffffffffffffffffffffffffffffff1602179055505b6000600160008573ffffffffffffffffffffffffffffffffffffffff1673ffffffffffffffffffffffffffffffffffffffff1681526020019081526020016000209050828160000190805190602001906106b99291906113b6565b5050505050565b60606000808373ffffffffffffffffffffffffffffffffffffffff1673ffffffffffffffffffffffffffffffffffffffff168152602001908152602001600020805480602002602001604051908101604052809291908181526020016000905b8282101561085f57838290600052602060002090600402016040518060800160405290816000820160009054906101000a900473ffffffffffffffffffffffffffffffffffffffff1673ffffffffffffffffffffffffffffffffffffffff1673ffffffffffffffffffffffffffffffffffffffff1681526020016001820180546107a990611f7d565b80601f01602080910402602001604051908101604052809291908181526020018280546107d590611f7d565b80156108225780601f106107f757610100808354040283529160200191610822565b820191906000526020600020905b81548152906001019060200180831161080557829003601f168201915b505050505081526020016002820160009054906101000a900460ff1615151515815260200160038201548152505081526020019060010190610720565b505050509050919050565b6000602052816000526040600020818154811061088657600080fd5b9060005260206000209060040201600091509150508060000160009054906101000a900473ffffffffffffffffffffffffffffffffffffffff16908060010180546108d090611f7d565b80601f01602080910402602001604051908101604052809291908181526020018280546108fc90611f7d565b80156109495780601f1061091e57610100808354040283529160200191610949565b820191906000526020600020905b81548152906001019060200180831161092c57829003601f168201915b5050505050908060020160009054906101000a900460ff16908060030154905084565b606060008273ffffffffffffffffffffffffffffffffffffffff1660001b905060006040518060400160405280601081526020017f303132333435363738396162636465660000000000000000000000000000000081525090506000602a67ffffffffffffffff8111156109e3576109e2611560565b5b6040519080825280601f01601f191660200182016040528015610a155781602001600182028036833780820191505090505b5090507f300000000000000000000000000000000000000000000000000000000000000081600081518110610a4d57610a4c611c2e565b5b60200101907effffffffffffffffffffffffffffffffffffffffffffffffffffffffffffff1916908160001a9053507f780000000000000000000000000000000000000000000000000000000000000081600181518110610ab157610ab0611c2e565b5b60200101907effffffffffffffffffffffffffffffffffffffffffffffffffffffffffffff1916908160001a90535060005b6014811015610c655782600485600c84610afd9190611fae565b60208110610b0e57610b0d611c2e565b5b1a60f81b7effffffffffffffffffffffffffffffffffffffffffffffffffffffffffffff1916901c60f81c60ff1681518110610b4d57610b4c611c2e565b5b602001015160f81c60f81b82600283610b669190611fe2565b6002610b729190611fae565b81518110610b8357610b82611c2e565b5b60200101907effffffffffffffffffffffffffffffffffffffffffffffffffffffffffffff1916908160001a90535082600f60f81b85600c84610bc69190611fae565b60208110610bd757610bd6611c2e565b5b1a60f81b1660f81c60ff1681518110610bf357610bf2611c2e565b5b602001015160f81c60f81b82600283610c0c9190611fe2565b6003610c189190611fae565b81518110610c2957610c28611c2e565b5b60200101907effffffffffffffffffffffffffffffffffffffffffffffffffffffffffffff1916908160001a9053508080600101915050610ae3565b50809350505050919050565b606060008203610cb8576040518060400160405280600181526020017f30000000000000000000000000000000000000000000000000000000000000008152509050610dcc565b600082905060005b60008214610cea578080610cd390612024565b915050600a82610ce3919061209b565b9150610cc0565b60008167ffffffffffffffff811115610d0657610d05611560565b5b6040519080825280601f01601f191660200182016040528015610d385781602001600182028036833780820191505090505b5090505b60008514610dc557600182610d519190611f1a565b9150600a85610d6091906120cc565b6030610d6c919061210a565b60f81b818381518110610d8257610d81611c2e565b5b60200101907effffffffffffffffffffffffffffffffffffffffffffffffffffffffffffff1916908160001a905350600a85610dbe919061209b565b9450610d3c565b8093505050505b919050565b6000610dec82600260009054906101000a900460ff16610f7d565b9050600060405180608001604052808573ffffffffffffffffffffffffffffffffffffffff1681526020018381526020016001151581526020014281525090506000808573ffffffffffffffffffffffffffffffffffffffff1673ffffffffffffffffffffffffffffffffffffffff16815260200190815260200160002081908060018154018082558091505060019003906000526020600020906004020160009091909190915060008201518160000160006101000a81548173ffffffffffffffffffffffffffffffffffffffff021916908373ffffffffffffffffffffffffffffffffffffffff1602179055506020820151816001019081610ef091906122eb565b5060408201518160020160006101000a81548160ff0219169083151502179055506060820151816003015550508373ffffffffffffffffffffffffffffffffffffffff167f1ca886f083d7104fc6ce65910cf0919b5c6f8d5681e3cb97d1f5901fe2b0dc668342604051610f659291906123bd565b60405180910390a2610f77848261101d565b50505050565b606060039150600083905060005b81518110156110125783828281518110610fa857610fa7611c2e565b5b602001015160f81c60f81b60f81c610fc0919061210a565b60f81b828281518110610fd657610fd5611c2e565b5b60200101907effffffffffffffffffffffffffffffffffffffffffffffffffffffffffffff1916908160001a9053508080600101915050610f8b565b508091505092915050565b60005b6003805490508110156111925760006003828154811061104357611042611c2e565b5b9060005260206000200160009054906101000a900473ffffffffffffffffffffffffffffffffffffffff16905061107a8185611197565b801561108d575061108b8184611285565b155b15611184576000808273ffffffffffffffffffffffffffffffffffffffff1673ffffffffffffffffffffffffffffffffffffffff16815260200190815260200160002083908060018154018082558091505060019003906000526020600020906004020160009091909190915060008201518160000160006101000a81548173ffffffffffffffffffffffffffffffffffffffff021916908373ffffffffffffffffffffffffffffffffffffffff160217905550602082015181600101908161115691906122eb565b5060408201518160020160006101000a81548160ff0219169083151502179055506060820151816003015550505b508080600101915050611020565b505050565b600080600160008573ffffffffffffffffffffffffffffffffffffffff1673ffffffffffffffffffffffffffffffffffffffff168152602001908152602001600020905060005b8160000180549050811015611278578373ffffffffffffffffffffffffffffffffffffffff1682600001828154811061121a57611219611c2e565b5b9060005260206000200160009054906101000a900473ffffffffffffffffffffffffffffffffffffffff1673ffffffffffffffffffffffffffffffffffffffff160361126b5760019250505061127f565b80806001019150506111de565b5060009150505b92915050565b6000806000808573ffffffffffffffffffffffffffffffffffffffff1673ffffffffffffffffffffffffffffffffffffffff168152602001908152602001600020905060005b81805490508110156113695783602001516040516020016112ec91906123ed565b6040516020818303038152906040528051906020012082828154811061131557611314611c2e565b5b90600052602060002090600402016001016040516020016113369190612487565b604051602081830303815290604052805190602001200361135c57600192505050611370565b80806001019150506112cb565b5060009150505b92915050565b6040518060800160405280600073ffffffffffffffffffffffffffffffffffffffff16815260200160608152602001600015158152602001600081525090565b82805482825590600052602060002090810192821561142f579160200282015b8281111561142e5782518260006101000a81548173ffffffffffffffffffffffffffffffffffffffff021916908373ffffffffffffffffffffffffffffffffffffffff160217905550916020019190600101906113d6565b5b50905061143c9190611440565b5090565b5b80821115611459576000816000905550600101611441565b5090565b6000604051905090565b600080fd5b600080fd5b600073ffffffffffffffffffffffffffffffffffffffff82169050919050565b600061149c82611471565b9050919050565b6114ac81611491565b81146114b757600080fd5b50565b6000813590506114c9816114a3565b92915050565b6000819050919050565b6114e2816114cf565b81146114ed57600080fd5b50565b6000813590506114ff816114d9565b92915050565b6000806040838503121561151c5761151b611467565b5b600061152a858286016114ba565b925050602061153b858286016114f0565b9150509250929050565b600080fd5b600080fd5b6000601f19601f8301169050919050565b7f4e487b7100000000000000000000000000000000000000000000000000000000600052604160045260246000fd5b6115988261154f565b810181811067ffffffffffffffff821117156115b7576115b6611560565b5b80604052505050565b60006115ca61145d565b90506115d6828261158f565b919050565b600067ffffffffffffffff8211156115f6576115f5611560565b5b6115ff8261154f565b9050602081019050919050565b82818337600083830152505050565b600061162e611629846115db565b6115c0565b90508281526020810184848401111561164a5761164961154a565b5b61165584828561160c565b509392505050565b600082601f83011261167257611671611545565b5b813561168284826020860161161b565b91505092915050565b600080600080608085870312156116a5576116a4611467565b5b60006116b3878288016114ba565b945050602085013567ffffffffffffffff8111156116d4576116d361146c565b5b6116e08782880161165d565b935050604085013567ffffffffffffffff8111156117015761170061146c565b5b61170d8782880161165d565b925050606061171e878288016114f0565b91505092959194509250565b6000602082840312156117405761173f611467565b5b600061174e848285016114ba565b91505092915050565b61176081611491565b82525050565b600081519050919050565b600082825260208201905092915050565b60005b838110156117a0578082015181840152602081019050611785565b60008484015250505050565b60006117b782611766565b6117c18185611771565b93506117d1818560208601611782565b6117da8161154f565b840191505092915050565b60008115159050919050565b6117fa816117e5565b82525050565b611809816114cf565b82525050565b60006080830160008301516118276000860182611757565b506020830151848203602086015261183f82826117ac565b915050604083015161185460408601826117f1565b5060608301516118676060860182611800565b508091505092915050565b6000602082019050818103600083015261188c818461180f565b905092915050565b600067ffffffffffffffff8211156118af576118ae611560565b5b602082029050602081019050919050565b600080fd5b60006118d86118d384611894565b6115c0565b905080838252602082019050602084028301858111156118fb576118fa6118c0565b5b835b81811015611924578061191088826114ba565b8452602084019350506020810190506118fd565b5050509392505050565b600082601f83011261194357611942611545565b5b81356119538482602086016118c5565b91505092915050565b6000806040838503121561197357611972611467565b5b6000611981858286016114ba565b925050602083013567ffffffffffffffff8111156119a2576119a161146c565b5b6119ae8582860161192e565b9150509250929050565b600081519050919050565b600082825260208201905092915050565b6000819050602082019050919050565b60006080830160008301516119fc6000860182611757565b5060208301518482036020860152611a1482826117ac565b9150506040830151611a2960408601826117f1565b506060830151611a3c6060860182611800565b508091505092915050565b6000611a5383836119e4565b905092915050565b6000602082019050919050565b6000611a73826119b8565b611a7d81856119c3565b935083602082028501611a8f856119d4565b8060005b85811015611acb5784840389528151611aac8582611a47565b9450611ab783611a5b565b925060208a01995050600181019050611a93565b50829750879550505050505092915050565b60006020820190508181036000830152611af78184611a68565b905092915050565b611b0881611491565b82525050565b600082825260208201905092915050565b6000611b2a82611766565b611b348185611b0e565b9350611b44818560208601611782565b611b4d8161154f565b840191505092915050565b611b61816117e5565b82525050565b611b70816114cf565b82525050565b6000608082019050611b8b6000830187611aff565b8181036020830152611b9d8186611b1f565b9050611bac6040830185611b58565b611bb96060830184611b67565b95945050505050565b7f496e76616c6964206c6f6720696e646578000000000000000000000000000000600082015250565b6000611bf8601183611b0e565b9150611c0382611bc2565b602082019050919050565b60006020820190508181036000830152611c2781611beb565b9050919050565b7f4e487b7100000000000000000000000000000000000000000000000000000000600052603260045260246000fd5b600081905092915050565b7f50617469656e74207265636f7264206372656174656420666f7220616464726560008201527f73733a2000000000000000000000000000000000000000000000000000000000602082015250565b6000611cc4602483611c5d565b9150611ccf82611c68565b602482019050919050565b6000611ce582611766565b611cef8185611c5d565b9350611cff818560208601611782565b80840191505092915050565b7f202d2046696c65204e616d653a20000000000000000000000000000000000000600082015250565b6000611d41600e83611c5d565b9150611d4c82611d0b565b600e82019050919050565b7f202d205175657279204c696e6b20486173683a20000000000000000000000000600082015250565b6000611d8d601483611c5d565b9150611d9882611d57565b601482019050919050565b7f2d54696d657374616d703a000000000000000000000000000000000000000000600082015250565b6000611dd9600b83611c5d565b9150611de482611da3565b600b82019050919050565b6000611dfa82611cb7565b9150611e068287611cda565b9150611e1182611d34565b9150611e1d8286611cda565b9150611e2882611d80565b9150611e348285611cda565b9150611e3f82611dcc565b9150611e4b8284611cda565b915081905095945050505050565b7f4e6f206c6f677320666f756e6420666f7220746865207370656369666965642060008201527f736f757263650000000000000000000000000000000000000000000000000000602082015250565b6000611eb5602683611b0e565b9150611ec082611e59565b604082019050919050565b60006020820190508181036000830152611ee481611ea8565b9050919050565b7f4e487b7100000000000000000000000000000000000000000000000000000000600052601160045260246000fd5b6000611f25826114cf565b9150611f30836114cf565b9250828203905081811115611f4857611f47611eeb565b5b92915050565b7f4e487b7100000000000000000000000000000000000000000000000000000000600052602260045260246000fd5b60006002820490506001821680611f9557607f821691505b602082108103611fa857611fa7611f4e565b5b50919050565b6000611fb9826114cf565b9150611fc4836114cf565b9250828201905080821115611fdc57611fdb611eeb565b5b92915050565b6000611fed826114cf565b9150611ff8836114cf565b9250828202612006816114cf565b9150828204841483151761201d5761201c611eeb565b5b5092915050565b600061202f826114cf565b91507fffffffffffffffffffffffffffffffffffffffffffffffffffffffffffffffff820361206157612060611eeb565b5b600182019050919050565b7f4e487b7100000000000000000000000000000000000000000000000000000000600052601260045260246000fd5b60006120a6826114cf565b91506120b1836114cf565b9250826120c1576120c061206c565b5b828204905092915050565b60006120d7826114cf565b91506120e2836114cf565b9250826120f2576120f161206c565b5b828206905092915050565b600060ff82169050919050565b6000612115826120fd565b9150612120836120fd565b9250828201905060ff81111561213957612138611eeb565b5b92915050565b60008190508160005260206000209050919050565b60006020601f8301049050919050565b600082821b905092915050565b6000600883026121a17fffffffffffffffffffffffffffffffffffffffffffffffffffffffffffffffff82612164565b6121ab8683612164565b95508019841693508086168417925050509392505050565b6000819050919050565b60006121e86121e36121de846114cf565b6121c3565b6114cf565b9050919050565b6000819050919050565b612202836121cd565b61221661220e826121ef565b848454612171565b825550505050565b600090565b61222b61221e565b6122368184846121f9565b505050565b5b8181101561225a5761224f600082612223565b60018101905061223c565b5050565b601f82111561229f576122708161213f565b61227984612154565b81016020851015612288578190505b61229c61229485612154565b83018261223b565b50505b505050565b600082821c905092915050565b60006122c2600019846008026122a4565b1980831691505092915050565b60006122db83836122b1565b9150826002028217905092915050565b6122f482611766565b67ffffffffffffffff81111561230d5761230c611560565b5b6123178254611f7d565b61232282828561225e565b600060209050601f8311600181146123555760008415612343578287015190505b61234d85826122cf565b8655506123b5565b601f1984166123638661213f565b60005b8281101561238b57848901518255600182019150602085019450602081019050612366565b868310156123a857848901516123a4601f8916826122b1565b8355505b6001600288020188555050505b505050505050565b600060408201905081810360008301526123d78185611b1f565b90506123e66020830184611b67565b9392505050565b60006123f98284611cda565b915081905092915050565b6000815461241181611f7d565b61241b8186611c5d565b94506001821660008114612436576001811461244b5761247e565b60ff198316865281151582028601935061247e565b6124548561213f565b60005b8381101561247657815481890152600182019150602081019050612457565b838801955050505b50505092915050565b60006124938284612404565b91508190509291505056fea2646970667358221220c1e024003375fe1a69d33388b8ce3a1d6c2d14dcd00e66e6cd0c3fc28ed9930f64736f6c63430008180033",
  "linkReferences": {},
  "deployedLinkReferences": {}
}