{
  "_format": "hh-sol-artifact-1",
  "contractName": "PatientRecordsContract",
  "sourceName": "contracts/PatientRecordsContract.sol",
  "abi": [
    {
      "inputs": [
        {
          "internalType": "address",
          "name": "_lc",
          "type": "address"
        },
        {
          "internalType": "address",
          "name": "_acc",
          "type": "address"
        }
      ],
      "stateMutability": "nonpayable",
      "type": "constructor"
    },
    {
      "anonymous": false,
      "inputs": [
        {
          "indexed": true,
          "internalType": "address",
          "name": "owner",
          "type": "address"
        },
        {
          "indexed": false,
          "internalType": "string",
          "name": "fileName",
          "type": "string"
        },
        {
          "indexed": false,
          "internalType": "string",
          "name": "queryLinkHash",
          "type": "string"
        }
      ],
      "name": "RecordCreated",
      "type": "event"
    },
    {
      "inputs": [],
      "name": "acc",
      "outputs": [
        {
          "internalType": "contract AccessControlContract",
          "name": "",
          "type": "address"
        }
      ],
      "stateMutability": "view",
      "type": "function"
    },
    {
      "inputs": [
        {
          "internalType": "address",
          "name": "_pat",
          "type": "address"
        },
        {
          "internalType": "string",
          "name": "_fileName",
          "type": "string"
        },
        {
          "internalType": "string",
          "name": "_queryLinkHash",
          "type": "string"
        }
      ],
      "name": "createPatientRecord",
      "outputs": [],
      "stateMutability": "nonpayable",
      "type": "function"
    },
    {
      "inputs": [
        {
          "internalType": "address",
          "name": "_patient",
          "type": "address"
        }
      ],
      "name": "getPatientRecords",
      "outputs": [
        {
          "internalType": "address",
          "name": "",
          "type": "address"
        },
        {
          "components": [
            {
              "internalType": "string",
              "name": "fileName",
              "type": "string"
            },
            {
              "internalType": "string",
              "name": "queryLinkHash",
              "type": "string"
            }
          ],
          "internalType": "struct PatientRecordsContract.PatientRecord[]",
          "name": "",
          "type": "tuple[]"
        }
      ],
      "stateMutability": "view",
      "type": "function"
    },
    {
      "inputs": [
        {
          "internalType": "address",
          "name": "_patient",
          "type": "address"
        },
        {
          "internalType": "address",
          "name": "_doctor",
          "type": "address"
        }
      ],
      "name": "grantAccess",
      "outputs": [],
      "stateMutability": "nonpayable",
      "type": "function"
    },
    {
      "inputs": [],
      "name": "lc",
      "outputs": [
        {
          "internalType": "contract LogsContract",
          "name": "",
          "type": "address"
        }
      ],
      "stateMutability": "view",
      "type": "function"
    },
    {
      "inputs": [
        {
          "internalType": "address",
          "name": "",
          "type": "address"
        }
      ],
      "name": "patientRecords",
      "outputs": [
        {
          "internalType": "address",
          "name": "patientAddress",
          "type": "address"
        }
      ],
      "stateMutability": "view",
      "type": "function"
    }
  ],
  "bytecode": "0x60806040523480156200001157600080fd5b50604051620010ab380380620010ab83398181016040528101906200003791906200012a565b816000806101000a81548173ffffffffffffffffffffffffffffffffffffffff021916908373ffffffffffffffffffffffffffffffffffffffff16021790555080600160006101000a81548173ffffffffffffffffffffffffffffffffffffffff021916908373ffffffffffffffffffffffffffffffffffffffff160217905550505062000171565b600080fd5b600073ffffffffffffffffffffffffffffffffffffffff82169050919050565b6000620000f282620000c5565b9050919050565b6200010481620000e5565b81146200011057600080fd5b50565b6000815190506200012481620000f9565b92915050565b60008060408385031215620001445762000143620000c0565b5b6000620001548582860162000113565b9250506020620001678582860162000113565b9150509250929050565b610f2a80620001816000396000f3fe608060405234801561001057600080fd5b50600436106100625760003560e01c806318bd484714610067578063200a1b91146100985780633be389e1146100c85780637514048b146100e45780637da1365e14610102578063c6a09d9514610120575b600080fd5b610081600480360381019061007c9190610637565b61013c565b60405161008f929190610809565b60405180910390f35b6100b260048036038101906100ad9190610637565b610309565b6040516100bf9190610839565b60405180910390f35b6100e260048036038101906100dd9190610989565b610347565b005b6100ec6104e8565b6040516100f99190610a73565b60405180910390f35b61010a61050c565b6040516101179190610aaf565b60405180910390f35b61013a60048036038101906101359190610aca565b610532565b005b6000606082600260008573ffffffffffffffffffffffffffffffffffffffff1673ffffffffffffffffffffffffffffffffffffffff16815260200190815260200160002060010180805480602002602001604051908101604052809291908181526020016000905b828210156102fa57838290600052602060002090600202016040518060400160405290816000820180546101d790610b39565b80601f016020809104026020016040519081016040528092919081815260200182805461020390610b39565b80156102505780601f1061022557610100808354040283529160200191610250565b820191906000526020600020905b81548152906001019060200180831161023357829003601f168201915b5050505050815260200160018201805461026990610b39565b80601f016020809104026020016040519081016040528092919081815260200182805461029590610b39565b80156102e25780601f106102b7576101008083540402835291602001916102e2565b820191906000526020600020905b8154815290600101906020018083116102c557829003601f168201915b505050505081525050815260200190600101906101a4565b50505050905091509150915091565b60026020528060005260406000206000915090508060000160009054906101000a900473ffffffffffffffffffffffffffffffffffffffff16905081565b60006040518060400160405280848152602001838152509050600260008573ffffffffffffffffffffffffffffffffffffffff1673ffffffffffffffffffffffffffffffffffffffff16815260200190815260200160002060010181908060018154018082558091505060019003906000526020600020906002020160009091909190915060008201518160000190816103e19190610d16565b5060208201518160010190816103f79190610d16565b50505060008060009054906101000a900473ffffffffffffffffffffffffffffffffffffffff1690508073ffffffffffffffffffffffffffffffffffffffff1663782ab940868686426040518563ffffffff1660e01b815260040161045f9493929190610e41565b600060405180830381600087803b15801561047957600080fd5b505af115801561048d573d6000803e3d6000fd5b505050508473ffffffffffffffffffffffffffffffffffffffff167ff95545833b615bcdcb954fdf5e5147658f6e6ba1d9d9b2c18209641265238a4c85856040516104d9929190610e94565b60405180910390a25050505050565b60008054906101000a900473ffffffffffffffffffffffffffffffffffffffff1681565b600160009054906101000a900473ffffffffffffffffffffffffffffffffffffffff1681565b600160009054906101000a900473ffffffffffffffffffffffffffffffffffffffff1673ffffffffffffffffffffffffffffffffffffffff1663c6a09d9583836040518363ffffffff1660e01b815260040161058f929190610ecb565b600060405180830381600087803b1580156105a957600080fd5b505af11580156105bd573d6000803e3d6000fd5b505050505050565b6000604051905090565b600080fd5b600080fd5b600073ffffffffffffffffffffffffffffffffffffffff82169050919050565b6000610604826105d9565b9050919050565b610614816105f9565b811461061f57600080fd5b50565b6000813590506106318161060b565b92915050565b60006020828403121561064d5761064c6105cf565b5b600061065b84828501610622565b91505092915050565b61066d816105f9565b82525050565b600081519050919050565b600082825260208201905092915050565b6000819050602082019050919050565b600081519050919050565b600082825260208201905092915050565b60005b838110156106d95780820151818401526020810190506106be565b60008484015250505050565b6000601f19601f8301169050919050565b60006107018261069f565b61070b81856106aa565b935061071b8185602086016106bb565b610724816106e5565b840191505092915050565b6000604083016000830151848203600086015261074c82826106f6565b9150506020830151848203602086015261076682826106f6565b9150508091505092915050565b600061077f838361072f565b905092915050565b6000602082019050919050565b600061079f82610673565b6107a9818561067e565b9350836020820285016107bb8561068f565b8060005b858110156107f757848403895281516107d88582610773565b94506107e383610787565b925060208a019950506001810190506107bf565b50829750879550505050505092915050565b600060408201905061081e6000830185610664565b81810360208301526108308184610794565b90509392505050565b600060208201905061084e6000830184610664565b92915050565b600080fd5b600080fd5b7f4e487b7100000000000000000000000000000000000000000000000000000000600052604160045260246000fd5b610896826106e5565b810181811067ffffffffffffffff821117156108b5576108b461085e565b5b80604052505050565b60006108c86105c5565b90506108d4828261088d565b919050565b600067ffffffffffffffff8211156108f4576108f361085e565b5b6108fd826106e5565b9050602081019050919050565b82818337600083830152505050565b600061092c610927846108d9565b6108be565b90508281526020810184848401111561094857610947610859565b5b61095384828561090a565b509392505050565b600082601f8301126109705761096f610854565b5b8135610980848260208601610919565b91505092915050565b6000806000606084860312156109a2576109a16105cf565b5b60006109b086828701610622565b935050602084013567ffffffffffffffff8111156109d1576109d06105d4565b5b6109dd8682870161095b565b925050604084013567ffffffffffffffff8111156109fe576109fd6105d4565b5b610a0a8682870161095b565b9150509250925092565b6000819050919050565b6000610a39610a34610a2f846105d9565b610a14565b6105d9565b9050919050565b6000610a4b82610a1e565b9050919050565b6000610a5d82610a40565b9050919050565b610a6d81610a52565b82525050565b6000602082019050610a886000830184610a64565b92915050565b6000610a9982610a40565b9050919050565b610aa981610a8e565b82525050565b6000602082019050610ac46000830184610aa0565b92915050565b60008060408385031215610ae157610ae06105cf565b5b6000610aef85828601610622565b9250506020610b0085828601610622565b9150509250929050565b7f4e487b7100000000000000000000000000000000000000000000000000000000600052602260045260246000fd5b60006002820490506001821680610b5157607f821691505b602082108103610b6457610b63610b0a565b5b50919050565b60008190508160005260206000209050919050565b60006020601f8301049050919050565b600082821b905092915050565b600060088302610bcc7fffffffffffffffffffffffffffffffffffffffffffffffffffffffffffffffff82610b8f565b610bd68683610b8f565b95508019841693508086168417925050509392505050565b6000819050919050565b6000610c13610c0e610c0984610bee565b610a14565b610bee565b9050919050565b6000819050919050565b610c2d83610bf8565b610c41610c3982610c1a565b848454610b9c565b825550505050565b600090565b610c56610c49565b610c61818484610c24565b505050565b5b81811015610c8557610c7a600082610c4e565b600181019050610c67565b5050565b601f821115610cca57610c9b81610b6a565b610ca484610b7f565b81016020851015610cb3578190505b610cc7610cbf85610b7f565b830182610c66565b50505b505050565b600082821c905092915050565b6000610ced60001984600802610ccf565b1980831691505092915050565b6000610d068383610cdc565b9150826002028217905092915050565b610d1f8261069f565b67ffffffffffffffff811115610d3857610d3761085e565b5b610d428254610b39565b610d4d828285610c89565b600060209050601f831160018114610d805760008415610d6e578287015190505b610d788582610cfa565b865550610de0565b601f198416610d8e86610b6a565b60005b82811015610db657848901518255600182019150602085019450602081019050610d91565b86831015610dd35784890151610dcf601f891682610cdc565b8355505b6001600288020188555050505b505050505050565b600082825260208201905092915050565b6000610e048261069f565b610e0e8185610de8565b9350610e1e8185602086016106bb565b610e27816106e5565b840191505092915050565b610e3b81610bee565b82525050565b6000608082019050610e566000830187610664565b8181036020830152610e688186610df9565b90508181036040830152610e7c8185610df9565b9050610e8b6060830184610e32565b95945050505050565b60006040820190508181036000830152610eae8185610df9565b90508181036020830152610ec28184610df9565b90509392505050565b6000604082019050610ee06000830185610664565b610eed6020830184610664565b939250505056fea2646970667358221220e24fc136b7288159aa92d60ebd247757389ee20bccb9e8e2566e7b50aa536d4164736f6c63430008180033",
  "linkReferences": {},
  "deployedLinkReferences": {}
}