{
  "_format": "hh-sol-artifact-1",
  "contractName": "StewardRelationshipHistoryContract",
  "sourceName": "contracts/StewardRelationshipHistoryContract.sol",
  "abi": [
    {
      "inputs": [
        {
          "internalType": "address",
          "name": "_prc",
          "type": "address"
        }
      ],
      "stateMutability": "nonpayable",
      "type": "constructor"
    },
    {
      "anonymous": false,
      "inputs": [
        {
          "indexed": true,
          "internalType": "address",
          "name": "node",
          "type": "address"
        },
        {
          "indexed": false,
          "internalType": "address[]",
          "name": "engagedNodes",
          "type": "address[]"
        },
        {
          "indexed": false,
          "internalType": "string[]",
          "name": "statuses",
          "type": "string[]"
        },
        {
          "indexed": false,
          "internalType": "uint256[]",
          "name": "timestamps",
          "type": "uint256[]"
        },
        {
          "indexed": false,
          "internalType": "address",
          "name": "a",
          "type": "address"
        }
      ],
      "name": "EngagedStewardships",
      "type": "event"
    },
    {
      "anonymous": false,
      "inputs": [
        {
          "indexed": true,
          "internalType": "address",
          "name": "owner",
          "type": "address"
        },
        {
          "indexed": true,
          "internalType": "address",
          "name": "associatedNode",
          "type": "address"
        },
        {
          "indexed": false,
          "internalType": "string",
          "name": "stewardshipStatus",
          "type": "string"
        },
        {
          "indexed": false,
          "internalType": "uint256",
          "name": "lastUpdateDate",
          "type": "uint256"
        },
        {
          "indexed": false,
          "internalType": "address",
          "name": "a",
          "type": "address"
        }
      ],
      "name": "StewardshipUpdated",
      "type": "event"
    },
    {
      "inputs": [
        {
          "internalType": "address",
          "name": "patient",
          "type": "address"
        },
        {
          "internalType": "address",
          "name": "doctor",
          "type": "address"
        },
        {
          "internalType": "string",
          "name": "file_name",
          "type": "string"
        },
        {
          "internalType": "string",
          "name": "file_hash",
          "type": "string"
        }
      ],
      "name": "establishStewardRelationship",
      "outputs": [],
      "stateMutability": "nonpayable",
      "type": "function"
    },
    {
      "inputs": [
        {
          "internalType": "address",
          "name": "node",
          "type": "address"
        }
      ],
      "name": "getEngagedStewardships",
      "outputs": [
        {
          "internalType": "address[]",
          "name": "",
          "type": "address[]"
        },
        {
          "internalType": "string[]",
          "name": "",
          "type": "string[]"
        },
        {
          "internalType": "uint256[]",
          "name": "",
          "type": "uint256[]"
        }
      ],
      "stateMutability": "view",
      "type": "function"
    },
    {
      "inputs": [
        {
          "internalType": "address",
          "name": "",
          "type": "address"
        },
        {
          "internalType": "address",
          "name": "",
          "type": "address"
        }
      ],
      "name": "isEngaged",
      "outputs": [
        {
          "internalType": "bool",
          "name": "",
          "type": "bool"
        }
      ],
      "stateMutability": "view",
      "type": "function"
    },
    {
      "inputs": [],
      "name": "prc",
      "outputs": [
        {
          "internalType": "contract PatientRecordsContract",
          "name": "",
          "type": "address"
        }
      ],
      "stateMutability": "view",
      "type": "function"
    },
    {
      "inputs": [
        {
          "internalType": "address",
          "name": "",
          "type": "address"
        },
        {
          "internalType": "uint256",
          "name": "",
          "type": "uint256"
        }
      ],
      "name": "stewardships",
      "outputs": [
        {
          "internalType": "address",
          "name": "nodeId",
          "type": "address"
        },
        {
          "internalType": "string",
          "name": "stewardshipStatus",
          "type": "string"
        },
        {
          "internalType": "uint256",
          "name": "lastUpdateDate",
          "type": "uint256"
        },
        {
          "internalType": "address",
          "name": "prcAddress",
          "type": "address"
        }
      ],
      "stateMutability": "view",
      "type": "function"
    },
    {
      "inputs": [
        {
          "internalType": "address",
          "name": "node",
          "type": "address"
        },
        {
          "internalType": "address",
          "name": "otherNode",
          "type": "address"
        },
        {
          "internalType": "string",
          "name": "newStatus",
          "type": "string"
        }
      ],
      "name": "updateStewardshipStatus",
      "outputs": [],
      "stateMutability": "nonpayable",
      "type": "function"
    }
  ],
  "bytecode": "0x60806040523480156200001157600080fd5b5060405162002198380380620021988339818101604052810190620000379190620000e8565b806000806101000a81548173ffffffffffffffffffffffffffffffffffffffff021916908373ffffffffffffffffffffffffffffffffffffffff160217905550506200011a565b600080fd5b600073ffffffffffffffffffffffffffffffffffffffff82169050919050565b6000620000b08262000083565b9050919050565b620000c281620000a3565b8114620000ce57600080fd5b50565b600081519050620000e281620000b7565b92915050565b6000602082840312156200010157620001006200007e565b5b60006200011184828501620000d1565b91505092915050565b61206e806200012a6000396000f3fe608060405234801561001057600080fd5b50600436106100625760003560e01c80631fe6e50914610067578063695817a71461008357806372a68aeb146100b65780637ec95472146100d45780638098c2a814610104578063d064486614610120575b600080fd5b610081600480360381019061007c9190611462565b610152565b005b61009d60048036038101906100989190611537565b610851565b6040516100ad9493929190611614565b60405180910390f35b6100be610966565b6040516100cb91906116bf565b60405180910390f35b6100ee60048036038101906100e991906116da565b61098a565b6040516100fb9190611735565b60405180910390f35b61011e60048036038101906101199190611750565b6109b9565b005b61013a600480360381019061013591906117bf565b610eea565b60405161014993929190611a74565b60405180910390f35b8273ffffffffffffffffffffffffffffffffffffffff168473ffffffffffffffffffffffffffffffffffffffff16036101c0576040517f08c379a00000000000000000000000000000000000000000000000000000000081526004016101b790611b32565b60405180910390fd5b600360008573ffffffffffffffffffffffffffffffffffffffff1673ffffffffffffffffffffffffffffffffffffffff16815260200190815260200160002060008473ffffffffffffffffffffffffffffffffffffffff1673ffffffffffffffffffffffffffffffffffffffff16815260200190815260200160002060009054906101000a900460ff161561028a576040517f08c379a000000000000000000000000000000000000000000000000000000000815260040161028190611b9e565b60405180910390fd5b600260008573ffffffffffffffffffffffffffffffffffffffff1673ffffffffffffffffffffffffffffffffffffffff16815260200190815260200160002060405180608001604052808573ffffffffffffffffffffffffffffffffffffffff1681526020016040518060400160405280601181526020017f6e65776c792065737461626c69736865640000000000000000000000000000008152508152602001428152602001600160009054906101000a900473ffffffffffffffffffffffffffffffffffffffff1673ffffffffffffffffffffffffffffffffffffffff16815250908060018154018082558091505060019003906000526020600020906004020160009091909190915060008201518160000160006101000a81548173ffffffffffffffffffffffffffffffffffffffff021916908373ffffffffffffffffffffffffffffffffffffffff16021790555060208201518160010190816103f29190611dc0565b506040820151816002015560608201518160030160006101000a81548173ffffffffffffffffffffffffffffffffffffffff021916908373ffffffffffffffffffffffffffffffffffffffff1602179055505050600260008473ffffffffffffffffffffffffffffffffffffffff1673ffffffffffffffffffffffffffffffffffffffff16815260200190815260200160002060405180608001604052808673ffffffffffffffffffffffffffffffffffffffff1681526020016040518060400160405280601181526020017f6e65776c792065737461626c69736865640000000000000000000000000000008152508152602001428152602001600160009054906101000a900473ffffffffffffffffffffffffffffffffffffffff1673ffffffffffffffffffffffffffffffffffffffff16815250908060018154018082558091505060019003906000526020600020906004020160009091909190915060008201518160000160006101000a81548173ffffffffffffffffffffffffffffffffffffffff021916908373ffffffffffffffffffffffffffffffffffffffff16021790555060208201518160010190816105ae9190611dc0565b506040820151816002015560608201518160030160006101000a81548173ffffffffffffffffffffffffffffffffffffffff021916908373ffffffffffffffffffffffffffffffffffffffff16021790555050506001600360008673ffffffffffffffffffffffffffffffffffffffff1673ffffffffffffffffffffffffffffffffffffffff16815260200190815260200160002060008573ffffffffffffffffffffffffffffffffffffffff1673ffffffffffffffffffffffffffffffffffffffff16815260200190815260200160002060006101000a81548160ff0219169083151502179055506001600360008573ffffffffffffffffffffffffffffffffffffffff1673ffffffffffffffffffffffffffffffffffffffff16815260200190815260200160002060008673ffffffffffffffffffffffffffffffffffffffff1673ffffffffffffffffffffffffffffffffffffffff16815260200190815260200160002060006101000a81548160ff02191690831515021790555060008060009054906101000a900473ffffffffffffffffffffffffffffffffffffffff1690508073ffffffffffffffffffffffffffffffffffffffff16633be389e18685856040518463ffffffff1660e01b815260040161078f93929190611e92565b600060405180830381600087803b1580156107a957600080fd5b505af11580156107bd573d6000803e3d6000fd5b505050508373ffffffffffffffffffffffffffffffffffffffff168573ffffffffffffffffffffffffffffffffffffffff167f84af3e093f8131ab5b4fd7af27b250ddc2648698a4778dc1c0f0a868f84f56b542600160009054906101000a900473ffffffffffffffffffffffffffffffffffffffff16604051610842929190611f23565b60405180910390a35050505050565b6002602052816000526040600020818154811061086d57600080fd5b9060005260206000209060040201600091509150508060000160009054906101000a900473ffffffffffffffffffffffffffffffffffffffff16908060010180546108b790611bed565b80601f01602080910402602001604051908101604052809291908181526020018280546108e390611bed565b80156109305780601f1061090557610100808354040283529160200191610930565b820191906000526020600020905b81548152906001019060200180831161091357829003601f168201915b5050505050908060020154908060030160009054906101000a900473ffffffffffffffffffffffffffffffffffffffff16905084565b60008054906101000a900473ffffffffffffffffffffffffffffffffffffffff1681565b60036020528160005260406000206020528060005260406000206000915091509054906101000a900460ff1681565b600360008473ffffffffffffffffffffffffffffffffffffffff1673ffffffffffffffffffffffffffffffffffffffff16815260200190815260200160002060008373ffffffffffffffffffffffffffffffffffffffff1673ffffffffffffffffffffffffffffffffffffffff16815260200190815260200160002060009054906101000a900460ff16610a82576040517f08c379a0000000000000000000000000000000000000000000000000000000008152600401610a7990611fab565b60405180910390fd5b60005b600260008573ffffffffffffffffffffffffffffffffffffffff1673ffffffffffffffffffffffffffffffffffffffff16815260200190815260200160002080549050811015610c6d578273ffffffffffffffffffffffffffffffffffffffff16600260008673ffffffffffffffffffffffffffffffffffffffff1673ffffffffffffffffffffffffffffffffffffffff1681526020019081526020016000208281548110610b3757610b36611fcb565b5b906000526020600020906004020160000160009054906101000a900473ffffffffffffffffffffffffffffffffffffffff1673ffffffffffffffffffffffffffffffffffffffff1603610c605781600260008673ffffffffffffffffffffffffffffffffffffffff1673ffffffffffffffffffffffffffffffffffffffff1681526020019081526020016000208281548110610bd657610bd5611fcb565b5b90600052602060002090600402016001019081610bf39190611dc0565b5042600260008673ffffffffffffffffffffffffffffffffffffffff1673ffffffffffffffffffffffffffffffffffffffff1681526020019081526020016000208281548110610c4657610c45611fcb565b5b906000526020600020906004020160020181905550610c6d565b8080600101915050610a85565b5060005b600260008473ffffffffffffffffffffffffffffffffffffffff1673ffffffffffffffffffffffffffffffffffffffff16815260200190815260200160002080549050811015610e59578373ffffffffffffffffffffffffffffffffffffffff16600260008573ffffffffffffffffffffffffffffffffffffffff1673ffffffffffffffffffffffffffffffffffffffff1681526020019081526020016000208281548110610d2357610d22611fcb565b5b906000526020600020906004020160000160009054906101000a900473ffffffffffffffffffffffffffffffffffffffff1673ffffffffffffffffffffffffffffffffffffffff1603610e4c5781600260008573ffffffffffffffffffffffffffffffffffffffff1673ffffffffffffffffffffffffffffffffffffffff1681526020019081526020016000208281548110610dc257610dc1611fcb565b5b90600052602060002090600402016001019081610ddf9190611dc0565b5042600260008573ffffffffffffffffffffffffffffffffffffffff1673ffffffffffffffffffffffffffffffffffffffff1681526020019081526020016000208281548110610e3257610e31611fcb565b5b906000526020600020906004020160020181905550610e59565b8080600101915050610c71565b508173ffffffffffffffffffffffffffffffffffffffff168373ffffffffffffffffffffffffffffffffffffffff167f84af3e093f8131ab5b4fd7af27b250ddc2648698a4778dc1c0f0a868f84f56b58342600160009054906101000a900473ffffffffffffffffffffffffffffffffffffffff16604051610edd93929190611ffa565b60405180910390a3505050565b60608060606000600260008673ffffffffffffffffffffffffffffffffffffffff1673ffffffffffffffffffffffffffffffffffffffff16815260200190815260200160002080549050905060008167ffffffffffffffff811115610f5257610f51611337565b5b604051908082528060200260200182016040528015610f805781602001602082028036833780820191505090505b50905060008267ffffffffffffffff811115610f9f57610f9e611337565b5b604051908082528060200260200182016040528015610fd257816020015b6060815260200190600190039081610fbd5790505b50905060008367ffffffffffffffff811115610ff157610ff0611337565b5b60405190808252806020026020018201604052801561101f5781602001602082028036833780820191505090505b50905060005b8481101561129557600260008a73ffffffffffffffffffffffffffffffffffffffff1673ffffffffffffffffffffffffffffffffffffffff168152602001908152602001600020818154811061107e5761107d611fcb565b5b906000526020600020906004020160000160009054906101000a900473ffffffffffffffffffffffffffffffffffffffff168482815181106110c3576110c2611fcb565b5b602002602001019073ffffffffffffffffffffffffffffffffffffffff16908173ffffffffffffffffffffffffffffffffffffffff1681525050600260008a73ffffffffffffffffffffffffffffffffffffffff1673ffffffffffffffffffffffffffffffffffffffff168152602001908152602001600020818154811061114e5761114d611fcb565b5b9060005260206000209060040201600101805461116a90611bed565b80601f016020809104026020016040519081016040528092919081815260200182805461119690611bed565b80156111e35780601f106111b8576101008083540402835291602001916111e3565b820191906000526020600020905b8154815290600101906020018083116111c657829003601f168201915b50505050508382815181106111fb576111fa611fcb565b5b6020026020010181905250600260008a73ffffffffffffffffffffffffffffffffffffffff1673ffffffffffffffffffffffffffffffffffffffff168152602001908152602001600020818154811061125757611256611fcb565b5b90600052602060002090600402016002015482828151811061127c5761127b611fcb565b5b6020026020010181815250508080600101915050611025565b50828282965096509650505050509193909250565b6000604051905090565b600080fd5b600080fd5b600073ffffffffffffffffffffffffffffffffffffffff82169050919050565b60006112e9826112be565b9050919050565b6112f9816112de565b811461130457600080fd5b50565b600081359050611316816112f0565b92915050565b600080fd5b600080fd5b6000601f19601f8301169050919050565b7f4e487b7100000000000000000000000000000000000000000000000000000000600052604160045260246000fd5b61136f82611326565b810181811067ffffffffffffffff8211171561138e5761138d611337565b5b80604052505050565b60006113a16112aa565b90506113ad8282611366565b919050565b600067ffffffffffffffff8211156113cd576113cc611337565b5b6113d682611326565b9050602081019050919050565b82818337600083830152505050565b6000611405611400846113b2565b611397565b90508281526020810184848401111561142157611420611321565b5b61142c8482856113e3565b509392505050565b600082601f8301126114495761144861131c565b5b81356114598482602086016113f2565b91505092915050565b6000806000806080858703121561147c5761147b6112b4565b5b600061148a87828801611307565b945050602061149b87828801611307565b935050604085013567ffffffffffffffff8111156114bc576114bb6112b9565b5b6114c887828801611434565b925050606085013567ffffffffffffffff8111156114e9576114e86112b9565b5b6114f587828801611434565b91505092959194509250565b6000819050919050565b61151481611501565b811461151f57600080fd5b50565b6000813590506115318161150b565b92915050565b6000806040838503121561154e5761154d6112b4565b5b600061155c85828601611307565b925050602061156d85828601611522565b9150509250929050565b611580816112de565b82525050565b600081519050919050565b600082825260208201905092915050565b60005b838110156115c05780820151818401526020810190506115a5565b60008484015250505050565b60006115d782611586565b6115e18185611591565b93506115f18185602086016115a2565b6115fa81611326565b840191505092915050565b61160e81611501565b82525050565b60006080820190506116296000830187611577565b818103602083015261163b81866115cc565b905061164a6040830185611605565b6116576060830184611577565b95945050505050565b6000819050919050565b600061168561168061167b846112be565b611660565b6112be565b9050919050565b60006116978261166a565b9050919050565b60006116a98261168c565b9050919050565b6116b98161169e565b82525050565b60006020820190506116d460008301846116b0565b92915050565b600080604083850312156116f1576116f06112b4565b5b60006116ff85828601611307565b925050602061171085828601611307565b9150509250929050565b60008115159050919050565b61172f8161171a565b82525050565b600060208201905061174a6000830184611726565b92915050565b600080600060608486031215611769576117686112b4565b5b600061177786828701611307565b935050602061178886828701611307565b925050604084013567ffffffffffffffff8111156117a9576117a86112b9565b5b6117b586828701611434565b9150509250925092565b6000602082840312156117d5576117d46112b4565b5b60006117e384828501611307565b91505092915050565b600081519050919050565b600082825260208201905092915050565b6000819050602082019050919050565b611821816112de565b82525050565b60006118338383611818565b60208301905092915050565b6000602082019050919050565b6000611857826117ec565b61186181856117f7565b935061186c83611808565b8060005b8381101561189d5781516118848882611827565b975061188f8361183f565b925050600181019050611870565b5085935050505092915050565b600081519050919050565b600082825260208201905092915050565b6000819050602082019050919050565b600082825260208201905092915050565b60006118f282611586565b6118fc81856118d6565b935061190c8185602086016115a2565b61191581611326565b840191505092915050565b600061192c83836118e7565b905092915050565b6000602082019050919050565b600061194c826118aa565b61195681856118b5565b935083602082028501611968856118c6565b8060005b858110156119a457848403895281516119858582611920565b945061199083611934565b925060208a0199505060018101905061196c565b50829750879550505050505092915050565b600081519050919050565b600082825260208201905092915050565b6000819050602082019050919050565b6119eb81611501565b82525050565b60006119fd83836119e2565b60208301905092915050565b6000602082019050919050565b6000611a21826119b6565b611a2b81856119c1565b9350611a36836119d2565b8060005b83811015611a67578151611a4e88826119f1565b9750611a5983611a09565b925050600181019050611a3a565b5085935050505092915050565b60006060820190508181036000830152611a8e818661184c565b90508181036020830152611aa28185611941565b90508181036040830152611ab68184611a16565b9050949350505050565b7f50617469656e7420616e6420646f63746f722063616e6e6f742062652074686560008201527f2073616d65000000000000000000000000000000000000000000000000000000602082015250565b6000611b1c602583611591565b9150611b2782611ac0565b604082019050919050565b60006020820190508181036000830152611b4b81611b0f565b9050919050565b7f537465776172647368697020616c72656164792065737461626c697368656400600082015250565b6000611b88601f83611591565b9150611b9382611b52565b602082019050919050565b60006020820190508181036000830152611bb781611b7b565b9050919050565b7f4e487b7100000000000000000000000000000000000000000000000000000000600052602260045260246000fd5b60006002820490506001821680611c0557607f821691505b602082108103611c1857611c17611bbe565b5b50919050565b60008190508160005260206000209050919050565b60006020601f8301049050919050565b600082821b905092915050565b600060088302611c807fffffffffffffffffffffffffffffffffffffffffffffffffffffffffffffffff82611c43565b611c8a8683611c43565b95508019841693508086168417925050509392505050565b6000611cbd611cb8611cb384611501565b611660565b611501565b9050919050565b6000819050919050565b611cd783611ca2565b611ceb611ce382611cc4565b848454611c50565b825550505050565b600090565b611d00611cf3565b611d0b818484611cce565b505050565b5b81811015611d2f57611d24600082611cf8565b600181019050611d11565b5050565b601f821115611d7457611d4581611c1e565b611d4e84611c33565b81016020851015611d5d578190505b611d71611d6985611c33565b830182611d10565b50505b505050565b600082821c905092915050565b6000611d9760001984600802611d79565b1980831691505092915050565b6000611db08383611d86565b9150826002028217905092915050565b611dc982611586565b67ffffffffffffffff811115611de257611de1611337565b5b611dec8254611bed565b611df7828285611d33565b600060209050601f831160018114611e2a5760008415611e18578287015190505b611e228582611da4565b865550611e8a565b601f198416611e3886611c1e565b60005b82811015611e6057848901518255600182019150602085019450602081019050611e3b565b86831015611e7d5784890151611e79601f891682611d86565b8355505b6001600288020188555050505b505050505050565b6000606082019050611ea76000830186611577565b8181036020830152611eb981856115cc565b90508181036040830152611ecd81846115cc565b9050949350505050565b7f6e65776c792065737461626c6973686564000000000000000000000000000000600082015250565b6000611f0d601183611591565b9150611f1882611ed7565b602082019050919050565b60006060820190508181036000830152611f3c81611f00565b9050611f4b6020830185611605565b611f586040830184611577565b9392505050565b7f5374657761726473686970206e6f7420666f756e640000000000000000000000600082015250565b6000611f95601583611591565b9150611fa082611f5f565b602082019050919050565b60006020820190508181036000830152611fc481611f88565b9050919050565b7f4e487b7100000000000000000000000000000000000000000000000000000000600052603260045260246000fd5b6000606082019050818103600083015261201481866115cc565b90506120236020830185611605565b6120306040830184611577565b94935050505056fea26469706673582212205b56bf3e01f588d64f6dcdddaa7df953c2f7a004ac46cc959f1a707a3d3853dd64736f6c63430008180033",
  "linkReferences": {},
  "deployedLinkReferences": {}
}